:020000040000FA
:100000000A128A11FA2F00308A000408840A820733
:100010000034203449346E346734723465347334B8
:100020006134203475346E34203463346134723476
:100030006134633474346534723420347034613420
:1000400072346134203465346C3420347034753447
:100050006534723474346F34203441343A3420348B
:100060000034203449346E34673472346534733468
:100070006134203475346E34203463346134723426
:1000800061346334743465347234203470346134D0
:1000900072346134203465346C34203470347534F7
:1000A0006534723474346F34203442343A3420343A
:1000B00000342034313429342034443465347334EA
:1000C00070346C3465346734613472342034633492
:1000D0006134643465346E3461342034643465349E
:1000E000203463346134723461346334743465347D
:1000F00072346534733420340D3400340D342034BC
:100100005134753465342034613463346334693474
:100110006F346E3420346434653473346534613440
:10012000203465346A34653463347534743461342E
:1001300072343F3420340D340034203433342934C5
:100140002034433461346D34623469346134723440
:10015000203450344F3452345434423420340D342B
:1001600020340D34003420343234293420344334E4
:1001700061346D3462346934613472342034503403
:100180004F3452345434413420340D34003420344C
:10019000483465346C346C346F34203466346334E2
:1001A0006B342034773472346C346434203400344B
:1001B0000D3420344C346934733474346F34203447
:0401C0000D340034C6
:100E3000831203131A080800F00083160313981C8A
:100E4000222F232F1D2F70088312031399000800EF
:100E5000F2003A2F720884000A128A1103200A1243
:100E60008A110A128A111C270A128A110130F10014
:100E70007108F207720884000A128A1103200A120C
:100E80008A11003A031D452F462F2A2F080083168A
:100E900003178801890183160313850186018312D4
:100EA0000313850186017030831603138F040F141A
:100EB00018121815831603178715CF3083160313DE
:100EC00099009A01831203139817181318168316A2
:100ED0000313981676300A128A1128270A128A11EB
:100EE00051300A128A1128270A128A11AB300A12CD
:100EF0008A1128270A128A1195300A128A11282786
:100F00000A128A11831203138C1E872F882F822FB7
:100F10000A128A1118270A128A11F3007308F600C0
:100F2000E42FBF300A128A1128270A128A110D30C5
:100F30008312031399006A2FF501F50A01300A1292
:100F40008A1128270A128A11B42F831203138C1EC8
:100F5000AA2FAB2FB42F0A128A1118270A128A114E
:100F6000831203138500F5017508031DB82FB92FEF
:100F7000A52FD0300A128A1128270A128A116A2F47
:100F8000F501F50A29300A128A1128270A128A1156
:100F9000D82F831203138C1ECE2FCF2FD82F0A12D7
:100FA0008A1118270A128A11831203138600F50189
:100FB0007508031DDC2FDD2FC92FD0300A128A11CE
:100FC00028270A128A116A2F7608F300F4017408A0
:100FD000003A0319EC2F6A2F7308313A0319912F45
:100FE000033A03199C2F013A0319C02F6A2F0A12E2
:100FF0008A110028F501F60183010A128A11472F90
:04400E00D438FF3F64
:00000001FF
