:020000040000FA
:060000000A128A110C280F
:10000800FE00030EF0000A08F1000A128A117C288B
:100018000A128A110F28F50183010A128A1114287D
:100028008316031788018901831603138501860146
:1000380083120313850186017030831603138F041E
:100048000F1418121815831603178715CF30831647
:10005800031399009A01831203139817181318169B
:10006800831603139816831203138C128316031333
:100078008C160B178B17F5010630F4001330F300BC
:10008800AD30F200F20B4628F30B4628F40B462855
:100098004D28831203130C1E522853284028750834
:1000A800013E84000A128A116A200A128A119900F4
:1000B8000130F2007208F5070C307506031D65283B
:1000C800662840283F280A128A110C2800308A0026
:1000D8000408840A82070034613462346334643467
:1000E800653466346734683469346A346B346C3424
:1000F800831203138C1E8128822884281A088600FC
:0E01080071088A00700E8300FE0E7E0E090044
:04400E00D438FF3F64
:00000001FF
