:020000040000FA
:060000000A128A110C280F
:10000800FE00030EF2000A08F3000A128A111328F0
:100018000A128A110F2883010A128A1145280B1D1A
:10002800162817283E288312031306181C281D2893
:100038002F28081488140330F1009730F000F00BD3
:100048002328F10B2328282883120313881046300D
:1000580081000B113E2808108814C730F00034289E
:10006800F00B3328372838288312031388104A30B6
:1000780081000B1173088A00720E8300FE0E7E0E3B
:1000880009008316031788018901FF3083160313BB
:100098008600880189018113151495140F088F397A
:1000A80060388F000F1481128111073081044E309F
:1000B8008312031381008B178B160B11860188019D
:1000C80089011030F400F40B67280000000065284F
:0600D8000A128A110C2837
:04400E00D430FF3F6C
:00000001FF
