:020000040000FA
:060000000A128A110C280F
:10000800FE00030EF1000A08F2000A168A117E2F7C
:100018000A128A110F28F601F701F801F901FA010D
:1000280083132030840053300A128A11F7270A12EA
:100038008A1183010A128A151F2D0B307802031CBE
:100048002628272830281530780203182C282D2830
:100058003028FA01FA0AB12915307802031C35282C
:10006800362841281F30780203183B283C284128AD
:100078000230D4005408FA00B1291F307802031C5A
:100088004628472852282930780203184C284D283A
:1000980052280330D4005408FA00B12929307802D4
:1000A800031C5728582863283330780203185D2822
:1000B8005E2863280430D4005408FA00B12933308C
:1000C8007802031C6828692874283D3078020318D0
:1000D8006E286F2874280530D4005408FA00B12916
:1000E8003D307802031C79287A2885284730780221
:1000F80003187F28802885280630D4005408FA0081
:10010800B12947307802031C8A288B289628513059
:10011800780203189028912896280730D4005408AC
:10012800FA00B12951307802031C9B289C28A72883
:100138005B3078020318A128A228A7280830D40029
:100148005408FA00B1295B307802031CAC28AD28AA
:10015800B828653078020318B228B328B8280930BF
:10016800D4005408FA00B12965307802031CBD2870
:10017800BE28C9286F3078020318C328C428C928A4
:100188000A30D4005408FA00B1296F307802031CF1
:10019800CE28CF28DA28793078020318D428D52831
:1001A800DA280B30D4005408FA00B12979307802E3
:1001B800031CDF28E028EB28833078020318E528A1
:1001C800E628EB280C30D4005408FA00B129833013
:1001D8007802031CF028F128FC288D3078020318D7
:1001E800F628F728FC280D30D4005408FA00B12965
:1001F8008D307802031C012902290D2997307802D5
:100208000318072908290D290E30D4005408FA00CC
:10021800B12997307802031C122913291E29A1300D
:1002280078020318182919291E290F30D4005408F8
:10023800FA00B129A1307802031C232924292F2987
:10024800AB307802031829292A292F291030D40025
:100258005408FA00B129AB307802031C3429352937
:100268004029B530780203183A293B294029113032
:10027800D4005408FA00B129B5307802031C452986
:1002880046295129BF30780203184B294C29512996
:100298001230D4005408FA00B129BF307802031C88
:1002A800562957296229C930780203185C295D2923
:1002B80062291330D4005408FA00B129C9307802F1
:1002C800031C672968297329D330780203186D291C
:1002D8006E2973291430D4005408FA00B129D33098
:1002E8007802031C782979298429DD3078020318DB
:1002F8007E297F2984291530D4005408FA00B129B1
:10030800DD307802031C89298A299529E73078028B
:1003180003188F29902995291630D4005408FA001B
:10032800B129E7307802031C9A299B29A629F130C4
:1003380078020318A029A129A6291730D400540847
:10034800FA00B129F1307802031CAB29AC29B12994
:100358001830D4005408FA00B1291F08C3391838D6
:100368009F000F3083120313D400D40BB929BC2982
:10037800831203139F145103031DC329C429062A9A
:100388002E30F4008A30F5000A128A11D1270A1299
:100398008A116C30F4008A30F5000A128A11D127CC
:1003A8000A128A118A30F4008A30F5000A128A117A
:1003B800D1270A128A114D30F4008A30F5000A124A
:1003C8008A11D1270A128A118B30F4008930F5007E
:1003D8000A128A11D1270A128A11AE30F400893024
:1003E800F5000A128A11D1270A128A114230F40044
:1003F8008930F5000A128A11D1270A128A1183124C
:100408000313D1018C1E092A0A2AED2E0A168A1115
:100418001F270A128A1183120313D4005408D2002A
:10042800D101D10AED2EC130F4008A30F5000A124C
:100438008A11D1270A128A11831203134B080A1250
:100448008A153B260A128A11CC30F4008A30F5004E
:100458000A128A11D1270A128A11D430F4008A307C
:10046800F5000A128A11D1270A128A11831203137E
:1004780042080A168A1123270A128A11F030F4005A
:100488008930F5000A128A11D1270A128A11C1305F
:10049800F4008A30F5000A128A11D1270A128A114B
:1004A800831203134A080A128A153B260A128A1174
:1004B800CC30F4008A30F5000A128A11D1270A12CA
:1004C8008A11D430F4008A30F5000A128A11D12733
:1004D8000A128A118312031341080A168A11232764
:1004E8000A128A110F30F4008A30F5000A128A11B4
:1004F800D1270A128A11C130F4008A30F5000A1295
:100508008A11D1270A128A118312031349080A1281
:100518008A153B260A128A11CC30F4008A30F5007D
:100528000A128A11D1270A128A11D430F4008A30AB
:10053800F5000A128A11D1270A128A1183120313AD
:1005480040080A168A1123270A128A11D030F400AB
:100558008930F5000A128A11D1270A128A118312EA
:100568000313D101D10A0C2FC130F4008A30F500F1
:100578000A128A11D1270A128A1183120313480812
:100588000A128A153B260A128A11CC30F4008A30E6
:10059800F5000A128A11D1270A128A11D430F40000
:1005A8008A30F5000A128A11D1270A128A11831299
:1005B80003133F080A168A1123270A128A11F030FA
:1005C800F4008930F5000A128A11D1270A128A111B
:1005D800C130F4008A30F5000A128A11D1270A12B4
:1005E8008A118312031347080A128A153B260A1236
:1005F8008A11CC30F4008A30F5000A128A11D1270A
:100608000A128A11D430F4008A30F5000A128A11CD
:10061800D1270A128A11831203133E080A168A1177
:1006280023270A128A110F30F4008A30F5000A12C3
:100638008A11D1270A128A11C130F4008A30F500D4
:100648000A128A11D1270A128A1183120313460843
:100658000A128A153B260A128A11CC30F4008A3015
:10066800F5000A128A11D1270A128A11D430F4002F
:100678008A30F5000A128A11D1270A128A118312C8
:1006880003133D080A168A1123270A128A11D0304B
:10069800F4008930F5000A128A11D1270A128A114A
:1006A800B32AC130F4008A30F5000A128A11D12722
:1006B8000A128A118312031345080A128A153B2667
:1006C8000A128A11CC30F4008A30F5000A128A1115
:1006D800D1270A128A11D430F4008A30F5000A12A0
:1006E8008A11D1270A128A11831203133C080A16A9
:1006F8008A1123270A128A11F030F4008930F50094
:100708000A128A11D1270A128A11C130F4008A30DC
:10071800F5000A128A11D1270A128A1183120313CB
:1007280044080A128A153B260A128A11CC30F400B2
:100738008A30F5000A128A11D1270A128A11D43098
:10074800F4008A30F5000A128A11D1270A128A1198
:10075800831203133B080A168A1123270A128A11E7
:100768000F30F4008A30F5000A128A11D1270A12D4
:100778008A11C130F4008A30F5000A128A11D12793
:100788000A128A118312031343080A128A153B2698
:100798000A128A11CC30F4008A30F5000A128A1144
:1007A800D1270A128A11D430F4008A30F5000A12CF
:1007B8008A11D1270A128A11831203133A080A16DA
:1007C8008A1123270A128A11D030F4008930F500E3
:1007D8000A128A11D1270A128A11B32A1B30F4008F
:1007E8008930F5000A128A11D1270A128A110030BD
:1007F800F4008830F5000A128A11D1270A128A11EA
:100808009430F4008830F5000A128A11D1270A12B0
:100818008A116430F4008830F5000A128A11D12751
:100828000A128A11831203138C1E1B2C1C2C162CE3
:100838008830F4008930F5000A128A11D1270A128B
:100848008A110A168A111F270A128A1183120313A2
:10085800D4005408F6008830F4008930F5000A12F4
:100868008A11D1270A128A11831203134E08D40061
:100878005408F30076080A128A153D230A128A11D1
:1008880083120313D5005508CE00C430F400883015
:10089800F5000A128A11D1270A128A116730F4006A
:1008A8008930F5000A128A11D1270A128A11831297
:1008B80003138C1E602C612C5B2C8830F40089306B
:1008C800F5000A128A11D1270A128A110A168A110A
:1008D8001F270A128A1183120313D4005408F60042
:1008E8008830F4008930F5000A128A11D1270A12DB
:1008F8008A11770883120313D4005408F30076088A
:100908000A128A1506230A128A1183120313D500C4
:100918005508F700F030F4008830F5000A128A1103
:10092800D1270A128A113430F4008830F5000A12EF
:100938008A11D1270A128A11A730F4008A30F500EB
:100948000A128A11D1270A128A11831203138C1EE4
:10095800AE2CAF2CA92C0A168A111F270A128A114D
:1009680083120313D4005408F60031307606031DB1
:10097800BE2CBF2CC82C4E08D4005408CB007708D6
:10098800D4005408C200B32A32307606031DCD2C99
:10099800CE2CD72C4E08D4005408CA007708D400AF
:1009A8005408C100B32A33307606031DDC2CDD2C35
:1009B800B32A4E08D4005408C9007708D400540854
:1009C800C000B32A1B30F4008930F5000A128A11DE
:1009D800D1270A128A110030F4008830F5000A1273
:1009E8008A11D1270A128A119430F4008830F50050
:1009F8000A128A11D1270A128A116430F400883049
:100A0800F5000A128A11D1270A128A1183120313D8
:100A18008C1E0F2D102D0A2D8830F4008930F5001A
:100A28000A128A11D1270A128A110A168A111F2757
:100A38000A128A1183120313D4005408F60088306E
:100A4800F4008930F5000A128A11D1270A128A1196
:100A5800831203134D08D4005408F30076080A12D1
:100A68008A153D230A128A1183120313D5005508EB
:100A7800CD00C430F4008830F5000A128A11D1275D
:100A88000A128A116730F4008930F5000A128A11B7
:100A9800D1270A128A11831203138C1E542D552D47
:100AA8004F2D8830F4008930F5000A128A11D127B9
:100AB8000A128A110A168A111F270A128A1183122A
:100AC8000313D4005408F6008830F4008930F50088
:100AD8000A128A11D1270A128A11831203135008A5
:100AE800D4005408F30076080A128A1506230A125D
:100AF8008A1183120313D5005508D000F030F40092
:100B08008830F5000A128A11D1270A128A11343066
:100B1800F4008830F5000A128A11D1270A128A11C6
:100B2800A730F4008A30F5000A128A11D1270A1278
:100B38008A11831203138C1EA22DA32D9D2D0A1634
:100B48008A111F270A128A1183120313D40054082A
:100B5800F60031307606031DB22DB32DBC2D4D089D
:100B6800D4005408C8005008D4005408BF00B32A61
:100B780032307606031DC12DC22DCB2D4D08D40071
:100B88005408C7005008D4005408BE00B32A3330B4
:100B98007606031DD02DD12DB32A4D08D400540854
:100BA800C6005008D4005408BD00B32A1B30F40016
:100BB8008930F5000A128A11D1270A128A110030E9
:100BC800F4008830F5000A128A11D1270A128A1116
:100BD8009430F4008830F5000A128A11D1270A12DD
:100BE8008A116430F4008830F5000A128A11D1277E
:100BF8000A128A11831203138C1E032E042EFE2D53
:100C08008830F4008930F5000A128A11D1270A12B7
:100C18008A110A168A111F270A128A1183120313CE
:100C2800D4005408F6008830F4008930F5000A1220
:100C38008A11D1270A128A11831203134C08D4008F
:100C48005408F30076080A128A153D230A128A11FD
:100C580083120313D5005508CC00C430F400883043
:100C6800F5000A128A11D1270A128A116730F40096
:100C78008930F5000A128A11D1270A128A118312C3
:100C880003138C1E482E492E432E8830F4008930D9
:100C9800F5000A128A11D1270A128A110A168A1136
:100CA8001F270A128A1183120313D4005408F6006E
:100CB8008830F4008930F5000A128A11D1270A1207
:100CC8008A11831203134F08D4005408F3007608DE
:100CD8000A128A1506230A128A1183120313D500F1
:100CE8005508CF00F030F4008830F5000A128A1158
:100CF800D1270A128A113430F4008830F5000A121C
:100D08008A11D1270A128A11A730F4008A30F50017
:100D18000A128A11D1270A128A11831203138C1E10
:100D2800962E972E912E0A168A111F270A128A11BB
:100D380083120313D4005408F60031307606031DDD
:100D4800A62EA72EB02E4C08D4005408C5004F0874
:100D5800D4005408BC00B32A32307606031DB52EE1
:100D6800B62EBF2E4C08D4005408C4004F08D40037
:100D78005408BB00B32A33307606031DC42EC52E93
:100D8800B32A4C08D4005408C3004F08D4005408B0
:100D9800BA00B32A4B08303ED4005408F600831634
:100DA8000313981CD82ED92ED32E7608831203133A
:100DB80099003208303ED4005408F6008316031315
:100DC800981CE72EE82EE22E76088312031399006A
:100DD8000C2F5208D400D5015508003A0319F52EF6
:100DE8000C2F5408313A0319172A033A0319B82A61
:100DF800013A0319552B073A0319F22B013A031943
:100E0800E62C033A0319DA2D013A0319CE2E0C2FDA
:100E18003030D4005408D200861B132F142F252FEE
:100E2800861D172F182F252F061A1B2F1C2F252F2D
:100E38007908D4005408BA007A08D4005408C300CA
:100E48004E2F861B282F292F3A2F86192C2F2D2F0E
:100E58003A2F061E302F312F3A2F7908D400540824
:100E6800BB007A08D4005408C4004E2F861B3D2FBF
:100E78003E2F4E2F8619412F422F4E2F061A452FEF
:100E8800462F4E2F7908D4005408BC007A08D400A5
:100E98005408C500061B512F522F632F861D552F4E
:100EA800562F632F061A592F5A2F632F7908D4000B
:100EB8005408BD007A08D4005408C6008C2F061BBD
:100EC800662F672F782F86196A2F6B2F782F061EAB
:100ED8006E2F6F2F782F7908D4005408BE007A0837
:100EE800D4005408C7008C2F061B7B2F7C2F8C2F17
:100EF80086197F2F802F8C2F061A832F842F8C2FF3
:100F08007908D4005408BF007A08D4005408C800EF
:100F1800861A8F2F902FA12F8619932F942FA12FE8
:100F2800061E972F982FA12F7908D4005408C000C7
:100F38007A08D4005408C900CB2F861AA42FA52FED
:100F4800B62F861DA82FA92FB62F061AAC2FAD2FA6
:100F5800B62F7908D4005408C1007A08D400540880
:100F6800CA00CB2F861AB92FBA2FCB2F8619BD2FBF
:100F7800BE2FCB2F061AC12FC22FCB2F7908D40032
:100F88005408C2007A08D4005408CB00CB2F0A12A8
:100F98008A159D2D0A128A110C28E62F7508FF0064
:100FA800740884000A128A15E7220A128A110A12A2
:100FB8008A15FA220A128A110130F4070318F50A71
:100FC8000030F507750883120313FF0074088400C6
:100FD8000A128A15E7220A128A11003A031DF52F10
:100FE800F62FD22F080064008001840A0406031932
:060FF80000340406F82F8E
:10100000203461342E3430342034203462342E3491
:10101000313420342034203463342E3432342034BC
:101020002034203464342E343334203420342034BB
:1010300065342E34343420342034203466342E3455
:10104000353420342034203467342E343634203480
:101050002034203468342E3437342034203469343A
:101060002E3438340D340034203470347234653406
:10107000733469346F346E346534203465346C34C1
:1010800020346E34C334BA346D34653472346F3402
:1010900020346434653420346D3465346434693408
:1010A000633461346D3465346E3474346F34203499
:1010B000613420346734753461347234643461349B
:1010C000723420340D34003472342E3431343734D9
:1010D0002034203473342E343134383420342034E6
:1010E00074342E34313439342034203475342E3471
:1010F000323430342034203476342E3432343134A7
:101100002034203477342E343234323420342034B6
:1011100078342E34323433342034203479342E343D
:10112000323434340D34003420346A342E343934BB
:10113000203420346B342E34313430342034203495
:101140006C342E3431343134203420346D342E3428
:1011500031343234203420346E342E34313433344C
:10116000203420346F342E3431343434203420345D
:1011700070342E34313435342034203471342E34EC
:10118000313436340D340034203449346E3467340D
:10119000723465347334C334A13420346C34613414
:1011A00020346C34653474347234613420346434E3
:1011B000653420346C346F34733420346D346934C6
:1011C0006E34753474346F34733420346E34753443
:1011D000653476346F347334203420340D34003465
:1011E0002034413463347434753461346C346D3478
:1011F00065346E347434653420347334653420348B
:101200006334753465346E3474346134203463343B
:101210006F346E342034333420346D3465346434A8
:101220006934633461346D3465346E3474346F34CE
:1012300073340D340034203449346E3467347234DE
:1012400065347334C334A13420346C3461342034B5
:101250006C346534743472346134203464346534ED
:1012600020346C34613420346E3475346534763413
:101270006134203468346F34723461342034203463
:101280000D3400343634293420344D346F34643412
:1012900069346634693463346134723420346834B8
:1012A0006F3472346134723469346F34203475347D
:1012B000733475346134723469346F342034743467
:1012C00072346534733420340D340D3400342034DA
:1012D00061342E3430342034203462342E343134AE
:1012E000353420342034203463342E3433343034D5
:1012F00020342034203464342E34343435342034D3
:101300002034203465342E343534353420342034C0
:1013100020340D3400343434293420344D346F34C7
:10132000643469346634693463346134723420342B
:1013300068346F3472346134723469346F342034F9
:101340007534733475346134723469346F342034D5
:1013500075346E346F3420340D3400343534293410
:1013600020344D346F346434693466346934633402
:1013700061347234203468346F34723461347234BE
:1013800069346F3420347534733475346134723495
:1013900069346F34203464346F3473340D34003462
:1013A00020346D3469346E3473342E342034703408
:1013B000613472346134203465346C3420346D34DB
:1013C000653464346934633461346D3465346E3447
:1013D00074346F342034333420340D340D340034FD
:1013E00020346D3469346E3473342E3420347034C8
:1013F000613472346134203465346C3420346D349B
:10140000653464346934633461346D3465346E3406
:1014100074346F342034313420340D3400342034AB
:101420006D3469346E3473342E3420347034613446
:1014300072346134203465346C3420346D34653456
:1014400064346934633461346D3465346E347434B7
:101450006F342034323420340D3400340D342034D1
:101460005134753465342034613463346334693401
:101470006F346E34203464346534733465346134CD
:10148000203465346A3465346334753474346134BB
:1014900072343F3420340D34003433342934203452
:1014A00076346534723420346434613474346F3487
:1014B00073342034643465342034753473347534B3
:1014C0006134723469346F34203474347234653466
:1014D000733420340D3400343134293420347634DC
:1014E0006534723420346434613474346F3473344A
:1014F0002034643465342034753473347534613485
:10150000723469346F34203475346E346F3420345F
:101510000D34003432342934203476346534723456
:1015200020346434613474346F347334203464345C
:1015300065342034753473347534613472346934ED
:101540006F34203464346F3473340D3400342034F9
:1015500031342E3441344634433420342034203462
:10156000203432342E34463446345434203420343B
:10157000203433342E34443448344C3420340D3445
:10158000003420344534733470346534723461343B
:101590007234203420340034203448346F347234B0
:1015A0006134733420340034203463346F346E3447
:1015B0002034203400343334303400343134353482
:1015C0000034343435340034353435340034FF1BC2
:1015D000F12A83137F1883170008840A0319FF0A6E
:1015E00008007F087F398A000408840A0319FF0A6B
:0215F000820077
:1015F400F30083160313981C002B012BFB2A73089A
:101604008312031399000800F50061307506031D69
:101614000C2B0D2B0F2BF3013B2B62307506031D96
:10162400142B152B1A2B0F30F4007408F3003B2BEA
:1016340063307506031D1F2B202B252B1E30F40051
:101644007408F3003B2B64307506031D2A2B2B2BE7
:10165400302B2D30F4007408F3003B2B65307506F5
:10166400031D352B362B3B2B3730F4007408F30065
:101674003B2B7308080083120313D300B92BF30127
:101684000E2CF301F30A0E2C0230F4007408F3005C
:101694000E2C0330F4007408F3000E2C0430F40014
:1016A4007408F3000E2C0530F4007408F3000E2CBB
:1016B4000630F4007408F3000E2C0730F4007408AC
:1016C400F3000E2C0830F4007408F3000E2C0930DB
:1016D400F4007408F3000E2C0A30F4007408F300CC
:1016E4000E2C0B30F4007408F3000E2C0C30F400B4
:1016F4007408F3000E2C0D30F4007408F3000E2C63
:101704000E30F4007408F3000E2C0F30F40074084B
:10171400F3000E2C1030F4007408F3000E2C11307A
:10172400F4007408F3000E2C1230F4007408F30073
:101734000E2C1330F4007408F3000E2C1430F40053
:101744007408F3000E2C1530F4007408F3000E2C0A
:101754001630F4007408F3000E2C1730F4007408EB
:10176400F3000E2C1830F4007408F3000E2C530808
:10177400F400F5017508003A0319C12B0E2C740806
:10178400613A0319412B033A0319432B013A031914
:10179400462B073A03194B2B013A0319502B033AF2
:1017A4000319552B013A03195A2B0F3A03195F2BCE
:1017B400013A0319642B033A0319692B013A0319FB
:1017C4006E2B073A0319732B013A0319782B033A4A
:1017D40003197D2B013A0319822B1F3A0319872B16
:1017E400013A03198C2B033A0319912B013A03197B
:1017F400962B073A03199B2B013A0319A02B033AA2
:101804000319A52B013A0319AA2B0F3A0319AF2B7D
:10181400013A0319B42B0E2C73080800061C132C70
:10182400142C192C35080319182C192C2B2C0814DA
:10183400033083120313D5009730D400D40B202C2B
:10184400D50B202C831203130810463081000B1192
:101854003A2C0814C73083120313D400312CD40B50
:10186400302C342C8312031308104A3081000B11DE
:10187400861C3D2C3E2C432C34080319422C432C4B
:10188400552C8814033083120313D5009730D400E9
:10189400D40B4A2CD50B4A2C8312031388104630E0
:1018A40081000B11642C8814C73083120313D400F5
:1018B4005B2CD40B5A2C5E2C8312031388104A30F1
:1018C40081000B11061D672C682C6D2C330803193D
:1018D4006C2C6D2C7F2C0815033083120313D50058
:1018E4009730D400D40B742CD50B742C83120313AF
:1018F4000811463081000B118E2C0815C730831255
:101904000313D400852CD40B842C882C831203134A
:1019140008114A3081000B110B11851B922C932C5A
:10192400A62CA901A601A301A801A501A201A70152
:10193400A401A101B201AF01AC01B101AE01AB013F
:10194400B001AD01AA0185019F18A92CAC2C0A1283
:101954008A11BF291F0CD400540C0F39063A031DF9
:10196400B42CB52C042D1E08D4005408F8002B30D8
:1019740078020318BE2CBF2CC12CF901FF2C2B308C
:101984007802031CC62CC72CD22C553078020318BD
:10199400CC2CCD2CD22C0F30D4005408F900FF2CC1
:1019A40055307802031CD72CD82CE32C7F307802D6
:1019B4000318DD2CDE2CE32C1E30D4005408F9006F
:1019C400FF2C7F307802031CE82CE92CF42CA9307E
:1019D40078020318EE2CEF2CF42C2D30D40054088C
:1019E400F900FF2CD2307802031CF92CFA2CFF2CBE
:1019F4003730D4005408F900FF2C1F08C3391438B9
:101A04009F000C2D1F0CD400540C0F39053A031DF4
:101A14000C2D0F2D0A128A11B5291E08D400540862
:101A2400F8000B3078020318182D1B2D0A128A11A6
:101A34002128FA010A128A11B1296030831603178A
:101A4400880089018030831603138500FF308600E7
:101A54008801033089009F131F129F1283120313FE
:101A64001F179F131F08C33914389F002030831297
:101A74000313D400D40B3C2D0000831203131F1452
:101A8400831603138113151495141515951615173C
:101A940095170F088F3960388F000F148112811148
:101AA400073081044E308312031381009016101600
:101AB40090151015901010148F018E0183160313C6
:101AC4001812181583160317871567308316031326
:101AD40099009A0183120313981718131816831682
:101AE400031398168B178B120B11831203130C100C
:101AF400831603130C140B17831203139F1485010D
:101B04008601870188018901B501B401B301A901E6
:101B1400A601A301A801A501A201A701A401A10195
:101B2400B201AF01AC01B101AE01AB01B001AD0135
:101B3400AA01D101D10A20080319A12DA22D332E07
:101B440032084B06031DA72DA82DB22D29084206E5
:101B5400031DAD2DAE2DB22DB501B50AB201A901FB
:101B64002F084806031DB72DB82DC22D26083F06A1
:101B7400031DBD2DBE2DC22DB501B50AAF01A601B1
:101B84002C084506031DC72DC82DD22D23083C065D
:101B9400031DCD2DCE2DD22DB501B50AAC01A30167
:101BA40031084A06031DD72DD82DE22D28084106F9
:101BB400031DDD2DDE2DE22DB401B40AB101A8010F
:101BC4002E084706031DE72DE82DF22D25083E06B5
:101BD400031DED2DEE2DF22DB401B40AAE01A501C5
:101BE4002B084406031DF72DF82D022E22083B0670
:101BF400031DFD2DFE2D022EB401B40AAB01A2017A
:101C040030084906031D072E082E122E2708400609
:101C1400031D0D2E0E2E122EB301B30AB001A7011F
:101C24002D084606031D172E182E222E24083D06C5
:101C3400031D1D2E1E2E222EB301B30AAD01A401D5
:101C44002A084306031D272E282E322E21083A0681
:101C5400031D2D2E2E2E322EB301B30AAA01A1018B
:101C6400A0010B1D382E0A128A15102C0A128A158F
:101C74008F2CF500AA2F83160313981C422E432E93
:101C84003D2E3030831203139900FF2F8316031364
:101C9400981C4D2E4E2E482E31308312031399007A
:101CA400FF2F83160313981C582E592E532E3230AF
:101CB400831203139900FF2F83160313981C632EBA
:101CC400642E5E2E3330831203139900FF2F831684
:101CD4000313981C6E2E6F2E692E34308312031357
:101CE4009900FF2F83160313981C792E7A2E742ED5
:101CF4003530831203139900FF2F83160313981CA6
:101D0400842E852E7F2E3630831203139900FF2FE5
:101D140083160313981C8F2E902E8A2E373083122D
:101D240003139900FF2F83160313981C9A2E9B2EDE
:101D3400952E3830831203139900FF2F8316031353
:101D4400981CA52EA62EA02E3930831203139900B9
:101D5400FF2F83160313981CB02EB12EAB2E3130F7
:101D640083120313990083160313981CBA2EBB2EF7
:101D7400B52E432E83160313981CC12EC22EBC2EDF
:101D8400313083120313990083160313981CCB2E4E
:101D9400CC2EC62E4E2E83160313981CD22ED32E71
:101DA400CD2E313083120313990083160313981C2C
:101DB400DC2EDD2ED72E592E83160313981CE32E0A
:101DC400E42EDE2E3130831203139900831603139D
:101DD400981CED2EEE2EE82E642E83160313981C09
:101DE400F42EF52EEF2E313083120313990083164F
:101DF4000313981CFE2EFF2EF92E6F2E8316031349
:101E0400981C052F062F002F3130831203139900DD
:101E140083160313981C0F2F102F0A2F7A2E831664
:101E24000313981C162F172F112F3130831203130D
:101E3400990083160313981C202F212F1B2F852E06
:101E440083160313981C272F282F222F3130831237
:101E54000313990083160313981C312F322F2C2F50
:101E6400902E83160313981C382F392F332F3130BB
:101E740083120313990083160313981C422F432FD4
:101E84003D2F9B2E83160313981C492F4A2F442F52
:101E9400313083120313990083160313981C532FB4
:101EA400542F4E2FA62E83160313981C5A2F5B2FE4
:101EB400552F323083120313990083160313981C91
:101EC400642F652F5F2F432E83160313981C6B2FEB
:101ED4006C2F662F32308312031399008316031379
:101EE400981C752F762F702F4E2E83160313981C73
:101EF4007C2F7D2F772F32308312031399008316A2
:101F04000313981C862F872F812F592E83160313B2
:101F1400981C8D2F8E2F882F323083120313990033
:101F240083160313981C972F982F922F642E8316D1
:101F34000313981C9E2F9F2F992F32308312031363
:101F4400990083160313981CA82FA92FA32F6F2E73
:101F54007508F300F4017408003A0319B22FFF2F37
:101F64007308003A03193D2E013A0319482E033A27
:101F74000319532E013A03195E2E073A0319692EE9
:101F8400013A0319742E033A03197F2E013A0319F7
:101F94008A2E0F3A0319952E013A0319A02E033AFB
:101FA4000319AB2E013A0319BC2E073A0319CD2E9F
:101FB400013A0319DE2E033A0319EF2E013A0319ED
:101FC400002F1F3A0319112F013A0319222F033A44
:101FD4000319332F013A0319442F073A0319552FD4
:101FE400013A0319662F033A0319772F013A0319AB
:0C1FF400882F0F3A0319992FFF2F0800C7
:102E3E00831203131A08080083120313D300831698
:102E4E000313981C2B2F2C2F262F8312031353089A
:102E5E00031D322F332F3D2FDC30F4008A30F50066
:102E6E000A128A11D1270A168A117D2F0F305306A6
:102E7E00031D422F432F4D2FDE30F4008A30F50014
:102E8E000A128A11D1270A168A117D2F1E30530677
:102E9E00031D522F532F5D2FDB30F4008A30F500C7
:102EAE000A128A11D1270A168A117D2F2D30530648
:102EBE00031D622F632F6D2FE130F4008A30F50071
:102ECE000A128A11D1270A168A117D2F373053061E
:102EDE00031D722F732F7D2FE430F4008A30F5001E
:102EEE000A128A11D1270A168A117D2F0800831221
:102EFE0003130C1C832F842FF92F0130F000700860
:102F0E00B9070130F0007008B80702303906031D0A
:102F1E00912F922FBC2F0130F0007008A9070130BD
:102F2E00F0007008A6070130F0007008A30701300A
:102F3E00F0007008A8070130F0007008A5070130F6
:102F4E00F0007008A2070130F0007008A7070130EA
:102F5E00F0007008A4070130F0007008A107B90155
:102F6E00B501B401B301A001A00A78303806031DE3
:102F7E00C12FC22FF12F0130F0007008B2070130BF
:102F8E00F0007008AF070130F0007008AC07013098
:102F9E00F0007008B1070130F0007008AE07013084
:102FAE00F0007008AB070130F0007008B007013078
:102FBE00F0007008AD070130F0007008AA07A901F3
:102FCE00A601A301A801A501A201A701A401A101C7
:102FDE00B80185090C10831603130C148312031306
:102FEE008F018E0172088A00710E8300FE0E7E0E16
:022FFE000900C8
:04400E00D420FF3F7C
:00000001FF
