:020000040000FA
:060000000A128A11FC2F18
:100F5E008316031788018901FF3083160313860059
:100F6E00880189018113151495140F088F39603883
:100F7E008F000F1481128111073081044E308312BD
:100F8E00031381008B138B160B11860188018901C7
:100F9E000B1DD22FD32FCF2F831203130618D82F4A
:100FAE00D92FEA2F88140330F1009730F000F00BA0
:100FBE00DE2FF10BDE2FE32F831203138810463042
:100FCE0081000B11CF2F8814C730F000EE2FF00BDD
:100FDE00ED2FF12FF22F8312031388104A30810068
:100FEE000B11CF2F0A128A11002883010A128A11BF
:020FFE00AF2F13
:04400E00D430FF3F6C
:00000001FF
