:020000040000FA
:060000000A128A110C280F
:10000800FE00030EF0000A08F1000A128A11F92C0A
:100018000A128A110F28F701F801F901FA01FB0108
:1000280083010A128A111828831603178801890187
:10003800831603138501FF30860088010330890089
:100048009F131F129F12831203131F179F131F085A
:10005800C33914389F002130F500F50B312883127D
:1000680003131F1483160313811315149514151500
:100078000F088F3960388F000F14811281110730F3
:1000880081044E3083120313810083160313181260
:1000980018158316031787156730831603139900FD
:1000A8009A0183120313981718131816831603134B
:1000B80098168B178B120B11831203139F1485014B
:1000C8008601870188018901F701F70A0B1D6D2850
:1000D8006E28C128831203130618732874288528EC
:1000E80008140330F6009730F500F50B7928F60B65
:1000F80079287E28831203130810463081000B11DB
:10010800C1288618882889289A2888140330F60078
:100118009730F500F50B8E28F60B8E28932883125E
:1001280003138810463081000B11C12806199D2839
:100138009E28AF2808150330F6009730F500F50B18
:10014800A328F60BA328A828831203130811463006
:1001580081000B11C128081488140815C730F50050
:10016800B528F50BB428B828B928831203138810CA
:10017800081108104A3081000B11831203139F18CD
:10018800C628C728D1291F0CF500750C0F39063A67
:10019800031DCF28D0281F291E08F5007508F9006F
:1001A8002B3079020318D928DA28DC28FA011A2911
:1001B8002B307902031CE128E228ED28553079021A
:1001C8000318E728E828ED280F30F5007508FA002D
:1001D8001A2955307902031CF228F328FE287F30AB
:1001E80079020318F828F928FE281E30F50075084A
:1001F800FA001A297F307902031C032904290F29E0
:10020800A9307902031809290A290F292D30F50088
:100218007508FA001A29D2307902031C1429152905
:100228001A293C30F5007508FA001A291F08C33945
:1002380014389F00C9291F0CF500750C0F39053AB1
:10024800031D27292829C9291E08F5007508F90062
:100258001B3079020318312932293429FB01C529B9
:100268001B307902031C39293A2943293530790290
:1002780003183F2940294329FB01FB0AC5293430CB
:100288007902031C4829492954294F307902031857
:100298004E294F2954290230F5007508FB00C5295D
:1002A8004F307902031C59295A2965296930790286
:1002B80003185F29602965290330F5007508FB00DC
:1002C800C52969307902031C6A296B29762983308C
:1002D800790203187029712976290430F500750808
:1002E800FB00C52983307902031C7B297C298729D7
:1002F8009D30790203188129822987290530F50064
:100308007508FB00C5299D307902031C8C298D29AD
:100318009829B73079020318922993299829063029
:10032800F5007508FB00C529B7307902031C9D2923
:100338009E29A929D13079020318A329A429A9291A
:100348000730F5007508FB00C529D1307902031C78
:10035800AE29AF29BA29EB3079020318B429B52997
:10036800BA290830F5007508FB00C529EB30790279
:10037800031CBF29C029C5290930F5007508FB00F1
:10038800C5291F08C33918389F001030F500F50B30
:10039800CB290000831203139F147B088500770381
:1003A800031DD729D829F12920300A128A11CE2411
:1003B8000A128A118C300A128A11CE240A128A1162
:1003C80073300A128A11CE240A128A115A300A127C
:1003D8008A11CE240A128A11F701831203138C1E84
:1003E800F629F7294D2B0A128A1100250A128A11BB
:1003F800F5007508F800F701F70A4D2BA3300A122B
:100408008A11CE240A128A1183160313981C0D2A06
:100418000E2A082A7B08031D122A132A182A3030AC
:100428008312031399007A2A7B03031D1C2A1D2AB1
:10043800222A31308312031399007A2A02307B066C
:10044800031D272A282A2D2A3230831203139900E4
:100458007A2A03307B06031D322A332A382A33309E
:100468008312031399007A2A04307B06031D3D2A60
:100478003E2A432A34308312031399007A2A05301E
:100488007B06031D482A492A4E2A35308312031356
:1004980099007A2A06307B06031D532A542A592AC2
:1004A80036308312031399007A2A07307B06031D1E
:1004B8005E2A5F2A642A37308312031399007A2A46
:1004C80008307B06031D692A6A2A6F2A383083128E
:1004D800031399007A2A09307B06031D742A752AAA
:1004E8007A2A39308312031399007A2AAE300A1215
:1004F8008A11CE240A128A11B6300A128A11CE2421
:100508000A128A1183160313981C8B2A8C2A862AAE
:100518007A08031D902A912A982ABE300A128A1155
:10052800CE240A128A11CC2A0F307A06031D9D2A7E
:100538009E2AA52AC3300A128A11CE240A128A11C9
:10054800CC2A1E307A06031DAA2AAB2AB22ABD304D
:100558000A128A11CE240A128A11CC2A2D307A0660
:10056800031DB72AB82ABF2AC6300A128A11CE2418
:100578000A128A11CC2A3C307A06031DC42AC52ADD
:10058800CC2AC0300A128A11CE240A128A11CC2A27
:1005980001300A128A11CE240A128A11F701F70AC9
:1005A800602BB6300A128A11CE240A128A118316D9
:1005B8000313981CE02AE12ADB2A7A08031DE52A9E
:1005C800E62AED2ABE300A128A11CE240A128A11AE
:1005D800212B0F307A06031DF22AF32AFA2AC33098
:1005E8000A128A11CE240A128A11212B1E307A0689
:1005F800031DFF2A002B072BBD300A128A11CE24B7
:100608000A128A11212B2D307A06031D0C2B0D2B73
:10061800142BC6300A128A11CE240A128A11212BF1
:100628003C307A06031D192B1A2B212BC0300A12D5
:100638008A11CE240A128A11212B01300A128A113A
:10064800CE240A128A11D22AA3300A128A11CE2481
:100658000A128A117B080A128A11ED240A128A11D9
:100668003F300A128A11CE240A128A11A3300A12C4
:100678008A11CE240A128A117A080A128A11ED24E4
:100688000A128A1101300A128A11CE240A128A111A
:10069800D22A7808F500F6017608003A0319552B96
:1006A800602B7508313A0319022A033A0319D52A2F
:1006B800013A0319282B602BF8016A280A128A11BB
:0206C8000C28FC
:1008000004308A000408840A8207003420346D34DE
:1008100069346E3473342E3420347034613472345D
:100820006134203465346C3420346D346534643480
:100830006934633461346D3465346E3474346F34C8
:10084000203420340D340D3400340D342034513430
:1008500075346534203461346334633469346F34FF
:100860006E34203464346534733465346134203438
:1008700065346A3465346334753474346134723485
:100880003F3420340D340034203448342E342034A6
:100890007034613472346134203465346C34203403
:1008A0006D34653464346934633461346D34653473
:1008B0006E3474346F34203420340D3400343334C7
:1008C000293420347634653472342034643461340D
:1008D00074346F34733420346434653420346134B8
:1008E0006D3462346F34733420340D340D3400347D
:1008F000323429342034763465347234203464340C
:10090000613474346F347334203464346534203487
:100910006D3469346E34753474346F3420340D346E
:100920000034313429342034763465347234203440
:100930006434613474346F34733420346434653413
:10094000203468346F347234613420340D34003410
:100950002034453473347034653472346134723405
:10096000203420340034203448346F3472346134FD
:10097000733420340034203463346F346E342034C4
:1009800020340034333430340034363430340034DE
:10099000313435340034343435340034F400E02C50
:1009A000740884000A128A1100240A128A110A1299
:1009B0008A11ED240A128A110130F3007308F4073A
:1009C000740884000A128A1100240A128A11003A5B
:1009D000031DEB2CEC2CD02C0800F2008316031323
:1009E000981CF32CF42CEE2C72088312031399003C
:1009F000080071088A00700E8300FE0E7E0E09004A
:080A0000831203131A08080019
:04400E00D430FF3F6C
:00000001FF
