:020000040000FA
:060000000A128A110C280F
:10000800FE00030EF1000A08F2000A128A15A22B5C
:100018000A128A110F28F601F701F801F901FA010D
:100028008313203084003C300A128A1574230A1284
:100038008A1183010A128A15302DA9307802031813
:10004800262827282C282D30BD003D08F900372800
:10005800D2307802031C3128322837283730BD00C7
:100068003D08F90037281F08C33914389F00E529CF
:100078001F0CBD003D0C0F39053A031D44284528C7
:10008800E5291E08BD003D08F8000B30780203186A
:100098004E284F285128FA01E1290B307802031C19
:1000A8005628572860281530780203185C285D28E0
:1000B8006028FA01FA0AE12915307802031C65283C
:1000C800662871281F30780203186B286C2871285D
:1000D8000230BD003D08FA00E1291F307802031CF8
:1000E8007628772882282930780203187C287D28EA
:1000F80082280330BD003D08FA00E1292930780242
:10010800031C8728882893283330780203188D2801
:100118008E2893280430BD003D08FA00E1293330C9
:100128007802031C98289928A4283D3078020318DF
:100138009E289F28A4280530BD003D08FA00E12923
:100148003D307802031CA928AA28B5284730780230
:100158000318AF28B028B5280630BD003D08FA00BE
:10016800E12947307802031CBA28BB28C628513039
:1001780078020318C028C128C6280730BD003D08EA
:10018800FA00E12951307802031CCB28CC28D72863
:100198005B3078020318D128D228D7280830BD0050
:1001A8003D08FA00E1295B307802031CDC28DD28D1
:1001B800E828653078020318E228E328E82809309F
:1001C800BD003D08FA00E12965307802031CED28DE
:1001D800EE28F9286F3078020318F328F428F92854
:1001E8000A30BD003D08FA00E1296F307802031C8F
:1001F800FE28FF280A2979307802031804290529DE
:100208000A290B30BD003D08FA00E129793078024F
:10021800031C0F2910291B2983307802031815297C
:1002280016291B290C30BD003D08FA00E12983304E
:100238007802031C202921292C298D3078020318E3
:10024800262927292C290D30BD003D08FA00E1296F
:100258008D307802031C312932293D2997307802E4
:100268000318372938293D290E30BD003D08FA000A
:10027800E12997307802031C422943294E29A130ED
:1002880078020318482949294E290F30BD003D0836
:10029800FA00E129A1307802031C532954295F2967
:1002A800AB307802031859295A295F291030BD004C
:1002B8003D08FA00E129AB307802031C642965295E
:1002C8007029B530780203186A296B297029113012
:1002D800BD003D08FA00E129B5307802031C7529F4
:1002E80076298129BF30780203187B297C29812946
:1002F8001230BD003D08FA00E129BF307802031C26
:10030800862987299229C930780203188C298D29D2
:1003180092291330BD003D08FA00E129C93078025E
:10032800031C97299829A329D330780203189D29FB
:100338009E29A3291430BD003D08FA00E129D330D5
:100348007802031CA829A929B429DD3078020318EA
:10035800AE29AF29B4291530BD003D08FA00E129BE
:10036800DD307802031CB929BA29C529E73078029B
:100378000318BF29C029C5291630BD003D08FA0059
:10038800E129E7307802031CCA29CB29D629F130A4
:1003980078020318D029D129D6291730BD003D0885
:1003A800FA00E129F1307802031CDB29DC29E12974
:1003B8001830BD003D08FA00E1291F08C339183874
:1003C8009F000F3083120313BD00BD0BE929EC29F0
:1003D800831203139F143A03031DF329F429362AC1
:1003E8002E30F4008A30F5000A128A157C230A128E
:1003F8008A116C30F4008A30F5000A128A157C23C1
:100408000A128A118A30F4008A30F5000A128A1515
:100418007C230A128A114D30F4008A30F5000A1242
:100428008A157C230A128A118B30F4008930F50072
:100438000A128A157C230A128A11AE30F400893018
:10044800F5000A128A157C230A128A114230F40038
:100458008930F5000A128A157C230A128A11831240
:100468000313BA018C1E392A3A2AFE2E0A128A155B
:1004780070230A128A1183120313BD003D08BB00C2
:10048800BA01BA0AFE2EC130F4008A30F5000A1209
:100498008A157C230A128A118312031334080A125C
:1004A8008A153B260A128A11CC30F4008A30F500EE
:1004B8000A128A157C230A128A11D430F4008A3071
:1004C800F5000A128A157C230A128A118312031373
:1004D8002B080A128A1502240A128A11F030F40035
:1004E8008930F5000A128A157C230A128A11C13054
:1004F800F4008A30F5000A128A157C230A128A1140
:100508008312031333080A128A153B260A128A112A
:10051800CC30F4008A30F5000A128A157C230A12BE
:100528008A11D430F4008A30F5000A128A157C2327
:100538000A128A11831203132A080A128A1502243E
:100548000A128A110F30F4008A30F5000A128A154F
:100558007C230A128A11C130F4008A30F5000A128D
:100568008A157C230A128A118312031332080A128D
:100578008A153B260A128A11CC30F4008A30F5001D
:100588000A128A157C230A128A11D430F4008A30A0
:10059800F5000A128A157C230A128A1183120313A2
:1005A80029080A128A1502240A128A11D030F40086
:1005B8008930F5000A128A157C230A128A118312DF
:1005C8000313BA01BA0A1A2FC130F4008A30F500B1
:1005D8000A128A157C230A128A118312031331081E
:1005E8000A128A153B260A128A11CC30F4008A3086
:1005F800F5000A128A157C230A128A11D430F400F5
:100608008A30F5000A128A157C230A128A1183128D
:10061800031328080A128A1502240A128A11F030D4
:10062800F4008930F5000A128A157C230A128A110F
:10063800C130F4008A30F5000A128A157C230A12A8
:100648008A118312031330080A128A153B260A12EC
:100658008A11CC30F4008A30F5000A128A157C23FE
:100668000A128A11D430F4008A30F5000A128A1569
:100678007C230A128A118312031327080A128A1587
:1006880002240A128A110F30F4008A30F5000A1287
:100698008A157C230A128A11C130F4008A30F500C9
:1006A8000A128A157C230A128A11831203132F084F
:1006B8000A128A153B260A128A11CC30F4008A30B5
:1006C800F5000A128A157C230A128A11D430F40024
:1006D8008A30F5000A128A157C230A128A118312BD
:1006E800031326080A128A1502240A128A11D03026
:1006F800F4008930F5000A128A157C230A128A113F
:10070800E32AC130F4008A30F5000A128A157C23E6
:100718000A128A11831203132E080A128A153B261D
:100728000A128A11CC30F4008A30F5000A128A15B0
:100738007C230A128A11D430F4008A30F5000A1298
:100748008A157C230A128A118312031325080A12B8
:100758008A1502240A128A11F030F4008930F50053
:100768000A128A157C230A128A11C130F4008A30D1
:10077800F5000A128A157C230A128A1183120313C0
:100788002D080A128A153B260A128A11CC30F40069
:100798008A30F5000A128A157C230A128A11D4308D
:1007A800F4008A30F5000A128A157C230A128A118D
:1007B8008312031324080A128A1502240A128A11C2
:1007C8000F30F4008A30F5000A128A157C230A12C9
:1007D8008A11C130F4008A30F5000A128A157C2388
:1007E8000A128A11831203132C080A128A153B264F
:1007F8000A128A11CC30F4008A30F5000A128A15E0
:100808007C230A128A11D430F4008A30F5000A12C7
:100818008A157C230A128A118312031323080A12E9
:100828008A1502240A128A11D030F4008930F500A2
:100838000A128A157C230A128A11E32A1B30F40053
:100848008930F5000A128A157C230A128A110030B1
:10085800F4008830F5000A128A157C230A128A11DE
:100868009430F4008830F5000A128A157C230A12A5
:100878008A116430F4008830F5000A128A157C2346
:100888000A128A11831203138C1E4B2C4C2C462CF3
:100898008830F4008930F5000A128A157C230A1280
:1008A8008A110A128A1570230A128A1183120313F5
:1008B800BD003D08F6008830F4008930F5000A12C2
:1008C8008A157C230A128A11831203133708BD0084
:1008D8003D08F30076080A128A155D240A128A1167
:1008E80083120313BE003E08B700C430F4008830FA
:1008F800F5000A128A157C230A128A116730F4005F
:100908008930F5000A128A157C230A128A1183128B
:1009180003138C1E902C912C8B2C8830F40089307A
:10092800F5000A128A157C230A128A110A128A15FE
:1009380070230A128A1183120313BD003D08F600C2
:100948008830F4008930F5000A128A157C230A12CF
:100958008A11770883120313BD003D08F300760857
:100968000A128A15CB230A128A1183120313BE00B6
:100978003E08F700F030F4008830F5000A128A15B6
:100988007C230A128A113430F4008830F5000A12E8
:100998008A157C230A128A11A730F4008A30F500E0
:1009A8000A128A157C230A128A11831203138C1ED9
:1009B800DE2CDF2CD92C0A128A1570230A128A1110
:1009C80083120313BD003D08F60031307606031D7F
:1009D800EE2CEF2CF82C3708BD003D08B400770842
:1009E800BD003D08AB00E32A32307606031DFD2C1E
:1009F800FE2C072D3708BD003D08B3007708BD0061
:100A08003D08AA00E32A33307606031D0C2D0D2D70
:100A1800E32A3708BD003D08B2007708BD003D084D
:100A2800A900E32A1B30F4008930F5000A128A1560
:100A38007C230A128A110030F4008830F5000A126B
:100A48008A157C230A128A119430F4008830F50044
:100A58000A128A157C230A128A116430F40088303D
:100A6800F5000A128A157C230A128A1183120313CD
:100A78008C1E3F2D402D3A2D8830F4008930F5002A
:100A88000A128A157C230A128A110A128A157023FF
:100A98000A128A1183120313BD003D08F60088303C
:100AA800F4008930F5000A128A157C230A128A118B
:100AB800831203133608BD003D08F30076080A12B6
:100AC8008A155D240A128A1183120313BE003E0898
:100AD800B600C430F4008830F5000A128A157C2369
:100AE8000A128A116730F4008930F5000A128A1553
:100AF8007C230A128A11831203138C1E842D852DE0
:100B08007F2D8830F4008930F5000A128A157C237D
:100B18000A128A110A128A1570230A128A1183127C
:100B28000313BD003D08F6008830F4008930F50055
:100B38000A128A157C230A128A11831203133908B0
:100B4800BD003D08F30076080A128A15CB230A1265
:100B58008A1183120313BE003E08B900F030F40076
:100B68008830F5000A128A157C230A128A1134305B
:100B7800F4008830F5000A128A157C230A128A11BB
:100B8800A730F4008A30F5000A128A157C230A126D
:100B98008A11831203138C1ED22DD32DCD2D0A1248
:100BA8008A1570230A128A1183120313BD003D08A7
:100BB800F60031307606031DE22DE32DEC2D3608C4
:100BC800BD003D08B1003908BD003D08A800E32A72
:100BD80032307606031DF12DF22DFB2D3608BD00AF
:100BE8003D08B0003908BD003D08A700E32A3330AE
:100BF8007606031D002E012EE32A3608BD003D08A7
:100C0800AF003908BD003D08A600E32A1B30F400F8
:100C18008930F5000A128A157C230A128A110030DD
:100C2800F4008830F5000A128A157C230A128A110A
:100C38009430F4008830F5000A128A157C230A12D1
:100C48008A116430F4008830F5000A128A157C2372
:100C58000A128A11831203138C1E332E342E2E2E61
:100C68008830F4008930F5000A128A157C230A12AC
:100C78008A110A128A1570230A128A118312031321
:100C8800BD003D08F6008830F4008930F5000A12EE
:100C98008A157C230A128A11831203133508BD00B2
:100CA8003D08F30076080A128A155D240A128A1193
:100CB80083120313BE003E08B500C430F400883028
:100CC800F5000A128A157C230A128A116730F4008B
:100CD8008930F5000A128A157C230A128A118312B8
:100CE80003138C1E782E792E732E8830F4008930E9
:100CF800F5000A128A157C230A128A110A128A152B
:100D080070230A128A1183120313BD003D08F600EE
:100D18008830F4008930F5000A128A157C230A12FB
:100D28008A11831203133808BD003D08F3007608C2
:100D38000A128A15CB230A128A1183120313BE00E2
:100D48003E08B800F030F4008830F5000A128A1521
:100D58007C230A128A113430F4008830F5000A1214
:100D68008A157C230A128A11A730F4008A30F5000C
:100D78000A128A157C230A128A11831203138C1E05
:100D8800C62EC72EC12E0A128A1570230A128A117E
:100D980083120313BD003D08F60031307606031DAB
:100DA800D62ED72EE02E3508BD003D08AE003808F7
:100DB800BD003D08A500E32A32307606031DE52E66
:100DC800E62EEF2E3508BD003D08AD003808BD0001
:100DD8003D08A400E32A33307606031DF42EF52ED1
:100DE800E32A3508BD003D08AC003808BD003D08C1
:100DF800A300E32A3B08BD00BE013E08003A0319E0
:100E0800062F1A2F3D08313A0319472A033A0319C6
:100E1800E82A013A0319852B073A0319222C013ACB
:100E28000319162D033A03190A2E1A2F3030BD0064
:100E38003D08BB00861B212F222F332F861D252F0F
:100E4800262F332F061A292F2A2F332F7908BD0072
:100E58003D08A3007A08BD003D08AC005C2F861B46
:100E6800362F372F482F86193A2F3B2F482F061E2B
:100E78003E2F3F2F482F7908BD003D08A4007A086F
:100E8800BD003D08AD005C2F861B4B2F4C2F5C2FFF
:100E980086194F2F502F5C2F061A532F542F5C2F73
:100EA8007908BD003D08A5007A08BD003D08AE00E0
:100EB800061B5F2F602F712F861D632F642F712FE4
:100EC800061A672F682F712F7908BD003D08A60004
:100ED8007A08BD003D08AF009A2F061B742F752FA6
:100EE800862F8619782F792F862F061E7C2F7D2F27
:100EF800862F7908BD003D08A7007A08BD003D0887
:100F0800B0009A2F061B892F8A2F9A2F86198D2FAA
:100F18008E2F9A2F061A912F922F9A2F7908BD009B
:100F28003D08A8007A08BD003D08B100861A9D2F2B
:100F38009E2FAF2F8619A12FA22FAF2F061EA52FE8
:100F4800A62FAF2F7908BD003D08A9007A08BD007B
:100F58003D08B200D92F861AB22FB32FC42F861D91
:100F6800B62FB72FC42F061ABA2FBB2FC42F790854
:100F7800BD003D08AA007A08BD003D08B300D92F7E
:100F8800861AC72FC82FD92F8619CB2FCC2FD92F28
:100F9800061ACF2FD02FD92F7908BD003D08AB00F6
:100FA8007A08BD003D08B400D92F0A128A15972D7A
:100FB8000A128A110C28FF1BE92F83137F18831745
:100FC8000008840A0319FF0A08007F087F398A008D
:100FD8000408840A0319FF0A8200F3008316031326
:100FE800981CF72FF82FF22F730883120313990018
:020FF8000800EF
:10100000203461342E3430342034203462342E3491
:10101000313420342034203463342E3432342034BC
:101020002034203464342E343334203420342034BB
:1010300065342E34343420342034203466342E3455
:10104000353420342034203467342E343634203480
:101050002034203468342E3437342034203469343A
:101060002E3438340D340034203470347234653406
:10107000733469346F346E346534203465346C34C1
:1010800020346E34C334BA346D34653472346F3402
:1010900020346434653420346D3465346434693408
:1010A000633461346D3465346E3474346F34203499
:1010B000613420346734753461347234643461349B
:1010C000723420340D34003472342E3431343734D9
:1010D0002034203473342E343134383420342034E6
:1010E00074342E34313439342034203475342E3471
:1010F000323430342034203476342E3432343134A7
:101100002034203477342E343234323420342034B6
:1011100078342E34323433342034203479342E343D
:10112000323434340D34003420346A342E343934BB
:10113000203420346B342E34313430342034203495
:101140006C342E3431343134203420346D342E3428
:1011500031343234203420346E342E34313433344C
:10116000203420346F342E3431343434203420345D
:1011700070342E34313435342034203471342E34EC
:10118000313436340D340034203449346E3467340D
:10119000723465347334C334A13420346C34613414
:1011A00020346C34653474347234613420346434E3
:1011B000653420346C346F34733420346D346934C6
:1011C0006E34753474346F34733420346E34753443
:1011D000653476346F347334203420340D34003465
:1011E0002034413463347434753461346C346D3478
:1011F00065346E347434653420347334653420348B
:101200006334753465346E3474346134203463343B
:101210006F346E342034333420346D3465346434A8
:101220006934633461346D3465346E3474346F34CE
:1012300073340D340034203449346E3467347234DE
:1012400065347334C334A13420346C3461342034B5
:101250006C346534743472346134203464346534ED
:1012600020346C34613420346E3475346534763413
:101270006134203468346F34723461342034203463
:101280000D3400343634293420344D346F34643412
:1012900069346634693463346134723420346834B8
:1012A0006F3472346134723469346F34203475347D
:1012B000733475346134723469346F342034743467
:1012C00072346534733420340D340D3400342034DA
:1012D00061342E3430342034203462342E343134AE
:1012E000353420342034203463342E3433343034D5
:1012F00020342034203464342E34343435342034D3
:101300002034203465342E343534353420342034C0
:1013100020340D3400343434293420344D346F34C7
:10132000643469346634693463346134723420342B
:1013300068346F3472346134723469346F342034F9
:101340007534733475346134723469346F342034D5
:1013500075346E346F3420340D3400343534293410
:1013600020344D346F346434693466346934633402
:1013700061347234203468346F34723461347234BE
:1013800069346F3420347534733475346134723495
:1013900069346F34203464346F3473340D34003462
:1013A00020346D3469346E3473342E342034703408
:1013B000613472346134203465346C3420346D34DB
:1013C000653464346934633461346D3465346E3447
:1013D00074346F342034333420340D340D340034FD
:1013E00020346D3469346E3473342E3420347034C8
:1013F000613472346134203465346C3420346D349B
:10140000653464346934633461346D3465346E3406
:1014100074346F342034313420340D3400342034AB
:101420006D3469346E3473342E3420347034613446
:1014300072346134203465346C3420346D34653456
:1014400064346934633461346D3465346E347434B7
:101450006F342034323420340D3400340D342034D1
:101460005134753465342034613463346334693401
:101470006F346E34203464346534733465346134CD
:10148000203465346A3465346334753474346134BB
:1014900072343F3420340D34003433342934203452
:1014A00076346534723420346434613474346F3487
:1014B00073342034643465342034753473347534B3
:1014C0006134723469346F34203474347234653466
:1014D000733420340D3400343134293420347634DC
:1014E0006534723420346434613474346F3473344A
:1014F0002034643465342034753473347534613485
:10150000723469346F34203475346E346F3420345F
:101510000D34003432342934203476346534723456
:1015200020346434613474346F347334203464345C
:1015300065342034753473347534613472346934ED
:101540006F34203464346F3473340D3400342034F9
:1015500031342E3441344634433420342034203462
:10156000203432342E34463446345434203420343B
:10157000203433342E34443448344C3420340D3445
:10158000003420344534733470346534723461343B
:101590007234203420340034203448346F347234B0
:1015A0006134733420340034203463346F346E3447
:1015B0002034203400343334303400343134353482
:0E15C0000034343435340034353435340034DE
:1016E000831203131A08080064008001840A0406A8
:1016F000031900340406752B912B7508FF0074083C
:1017000084000A128A11DF270A128A150A128A1126
:10171000F1270A128A150130F4070318F50A003080
:10172000F507750883120313FF00740884000A127A
:101730008A11DF270A128A15003A031DA02BA12B5C
:101740007D2B0800831203130C1CA72BA82BC42B82
:101750000130F0007008A20702302206031DB12BF1
:10176000B22BBC2B0130F0007008A1070130F00053
:101770007008A0078509A2010C10831603130C142E
:10178000831203138F018E0172088A00710E830089
:10179000FE0E7E0E0900F50061307506031DD12B8B
:1017A000D22BD42BF301002C62307506031DD92BEC
:1017B000DA2BDF2B0F30F4007408F300002C6330B9
:1017C0007506031DE42BE52BEA2B1E30F40074088C
:1017D000F300002C64307506031DEF2BF02BF52B66
:1017E0002D30F4007408F300002C65307506031DDD
:1017F000FA2BFB2B002C3730F4007408F300002C7C
:101800007308080083120313BC0083160313981C8B
:101810000A2C0B2C052C831203133C08031D112CDE
:10182000122C1C2CDC30F4008A30F5000A128A15C8
:101830007C230A128A155C2C0F303C06031D212CD8
:10184000222C2C2CDE30F4008A30F5000A128A1586
:101850007C230A128A155C2C1E303C06031D312C99
:10186000322C3C2CDB30F4008A30F5000A128A1549
:101870007C230A128A155C2C2D303C06031D412C5A
:10188000422C4C2CE130F4008A30F5000A128A1503
:101890007C230A128A155C2C37303C06031D512C20
:1018A000522C5C2CE430F4008A30F5000A128A15C0
:1018B0007C230A128A155C2C080083120313BC00D7
:1018C000D92CF3012E2DF301F30A2E2D0230F40052
:1018D0007408F3002E2D0330F4007408F3002E2D4D
:1018E0000430F4007408F3002E2D0530F400740861
:1018F000F3002E2D0630F4007408F3002E2D07306F
:10190000F4007408F3002E2D0830F4007408F3007E
:101910002E2D0930F4007408F3002E2D0A30F40047
:101920007408F3002E2D0B30F4007408F3002E2DF4
:101930000C30F4007408F3002E2D0D30F400740800
:10194000F3002E2D0E30F4007408F3002E2D0F300E
:10195000F4007408F3002E2D1030F4007408F30026
:101960002E2D1130F4007408F3002E2D1230F400E7
:101970007408F3002E2D1330F4007408F3002E2D9C
:101980001430F4007408F3002E2D1530F4007408A0
:10199000F3002E2D1630F4007408F3002E2D1730AE
:1019A000F4007408F3002E2D1830F4007408F300CE
:1019B0002E2D3C08F400F5017508003A0319E12CBE
:1019C0002E2D7408613A0319612C033A0319632C14
:1019D000013A0319662C073A03196B2C013A0319D3
:1019E000702C033A0319752C013A03197A2C0F3A1B
:1019F00003197F2C013A0319842C033A0319892C0B
:101A0000013A03198E2C073A0319932C013A031952
:101A1000982C033A03199D2C013A0319A22C1F3A62
:101A20000319A72C013A0319AC2C033A0319B12C62
:101A3000013A0319B62C073A0319BB2C013A0319D2
:101A4000C02C033A0319C52C013A0319CA2C0F3ACA
:101A50000319CF2C013A0319D42C2E2D730808003A
:101A60008316031788018901831603138501FF304C
:101A700086008801033089009F131F129F12831272
:101A800003131F179F131F08C33914389F002030FA
:101A900083120313BD00BD0B4B2D000083120313F3
:101AA0001F14831603138113151495141515951619
:101AB000151795170F088F3960388F000F14811292
:101AC0008111073081044E30831203138100901678
:101AD000101690151015901010148F018E0183169A
:101AE000031318121815831603178715673083160A
:101AF000031399009A0183120313981718131816E9
:101B00008316031398168B178B120B118312031372
:101B10000C10831603130C140B17831203139F145A
:101B200085018601870188018901BA01BA0A0B1D66
:101B30009A2D9B2DF02D06189E2D9F2DB12D08144A
:101B4000033083120313BE009730BD00BD0BA62DDA
:101B5000BE0BA62D831203130810463081000B1113
:101B6000F02D8618B42DB52DC72D8814033083129F
:101B70000313BE009730BD00BD0BBC2DBE0BBC2DAA
:101B8000831203138810463081000B11F02D0619C3
:101B9000CA2DCB2DDD2D0815033083120313BE0093
:101BA0009730BD00BD0BD22DBE0BD22D8312031377
:101BB0000811463081000B11F02D08148814081507
:101BC000C73083120313BD00E52DBD0BE42DE82DB6
:101BD000831203138810081108104A3081000B117A
:101BE0009F18F32DF62D0A128A11EF291F0CBD0044
:101BF0003D0C0F39063A031DFE2D012E0A128A11E3
:101C00003C281E08BD003D08F8002B307802031860
:101C10000A2E0B2E0F2EF9010A128A1137282B30AB
:101C20007802031C142E152E202E5530780203182E
:101C30001A2E1B2E202E0F30BD003D08F9000C2E51
:101C400055307802031C252E262E312E7F30780247
:101C500003182B2E2C2E312E1E30BD003D08F9000E
:101C60000C2E7F307802031C382E0A128A1121288C
:101C70000A128A112C28F500AA2F83160313981C28
:101C8000422E432E3D2E3030831203139900FF2F36
:101C900083160313981C4D2E4E2E482E313083127E
:101CA00003139900FF2F83160313981C582E592EE7
:101CB000532E3230831203139900FF2F8316031320
:101CC000981C632E642E5E2E33308312031399000A
:101CD000FF2F83160313981C6E2E6F2E692E34303F
:101CE000831203139900FF2F83160313981C792E78
:101CF0007A2E742E3530831203139900FF2F83162A
:101D00000313981C842E852E7F2E363083120313E6
:101D10009900FF2F83160313981C8F2E902E8A2E66
:101D20003730831203139900FF2F83160313981C77
:101D30009A2E9B2E952E3830831203139900FF2F75
:101D400083160313981CA52EA62EA02E39308312BD
:101D500003139900FF2F83160313981CB02EB12E86
:101D6000AB2E313083120313990083160313981C92
:101D7000BA2EBB2EB52E432E83160313981CC12EEC
:101D8000C22EBC2E31308312031399008316031325
:101D9000981CCB2ECC2EC62E4E2E83160313981CC9
:101DA000D22ED32ECD2E31308312031399008316F9
:101DB0000313981CDC2EDD2ED72E592E8316031309
:101DC000981CE32EE42EDE2E31308312031399008B
:101DD00083160313981CED2EEE2EE82E642E831628
:101DE0000313981CF42EF52EEF2E313083120313BB
:101DF000990083160313981CFE2EFF2EF92E6F2ECA
:101E000083160313981C052F062F002F31308312E1
:101E10000313990083160313981C0F2F102F0A2FFA
:101E20007A2E83160313981C162F172F112F31307B
:101E300083120313990083160313981C202F212F5C
:101E40001B2F852E83160313981C272F282F222F34
:101E5000313083120313990083160313981C312F1A
:101E6000322F2C2F902E83160313981C382F392FC6
:101E7000332F313083120313990083160313981CF8
:101E8000422F432F3D2F9B2E83160313981C492F5F
:101E90004A2F442F31308312031399008316031302
:101EA000981C532F542F4E2FA62E83160313981CC5
:101EB0005A2F5B2F552F323083120313990083164C
:101EC0000313981C642F652F5F2F432E8316031373
:101ED000981C6B2F6C2F662F3230831203139900DE
:101EE00083160313981C752F762F702F4E2E831692
:101EF0000313981C7C2F7D2F772F3230831203130E
:101F0000990083160313981C862F872F812F592E33
:101F100083160313981C8D2F8E2F882F3230831237
:101F20000313990083160313981C972F982F922F51
:101F3000642E83160313981C9E2F9F2F992F3230E7
:101F400083120313990083160313981CA82FA92F3B
:101F5000A32F6F2E7508F300F4017408003A0319DB
:101F6000B22FFF2F7308003A03193D2E013A0319CF
:101F7000482E033A0319532E013A03195E2E073AED
:101F80000319692E013A0319742E033A03197F2E9F
:101F9000013A03198A2E0F3A0319952E013A0319B3
:101FA000A02E033A0319AB2E013A0319BC2E073AAF
:101FB0000319CD2E013A0319DE2E033A0319EF2E31
:101FC000013A0319002F1F3A0319112F013A03197F
:101FD000222F033A0319332F013A0319442F073AEA
:101FE0000319552F013A0319662F033A0319772F66
:101FF000013A0319882F0F3A0319992FFF2F080070
:04400E00D420FF3F7C
:00000001FF
