:020000040000FA
:060000000A128A110C280F
:10000800FE00030EF6000A08F7000A128A11AC2D4A
:100018000A128A110F28F001F101F201F301F4012B
:10002800F50183132030840038300A128A11A42580
:100038000A128A1183010A128A11E729FA00912902
:1000480083160313981C29282A2824283030831261
:1000580003139900E62983160313981C34283528BE
:100068002F283130831203139900E62983160313CE
:10007800981C3F2840283A283230831203139900ED
:10008800E62983160313981C4A284B284528333041
:10009800831203139900E62983160313981C552825
:1000A800562850283430831203139900E629831602
:1000B8000313981C602861285B28353083120313CA
:1000C8009900E62983160313981C6B286C28662868
:1000D8003630831203139900E62983160313981CFC
:1000E8007628772871283730831203139900E62978
:1000F80083160313981C812882287C2838308312A1
:1001080003139900E62983160313981C8C288D285D
:1001180087283930831203139900E62983160313BD
:10012800981C972898289228313083120313990035
:1001380083160313981CA128A2289C282A28831612
:100148000313981CA828A928A32831308312031365
:10015800990083160313981CB228B328AD283528B4
:1001680083160313981CB928BA28B428313083128F
:100178000313990083160313981CC328C428BE28A8
:10018800402883160313981CCA28CB28C528313069
:1001980083120313990083160313981CD428D528B7
:1001A800CF284B2883160313981CDB28DC28D62875
:1001B800313083120313990083160313981CE52822
:1001C800E628E028562883160313981CEC28ED2807
:1001D800E728313083120313990083160313981C00
:1001E800F628F728F128612883160313981CFD28A0
:1001F800FE28F8283130831203139900831603135D
:10020800981C0729082902296C2883160313981CAF
:100218000E290F29092931308312031399008316F7
:100228000313981C182919291329772883160313EF
:10023800981C1F2920291A29313083120313990089
:1002480083160313981C29292A292429822883160E
:100258000313981C302931292B29313083120313B9
:10026800990083160313981C3A293B2935298D28B0
:1002780083160313981C412942293C2932308312E2
:100288000313990083160313981C4B294C294629FC
:100298002A2883160313981C522953294D293230D2
:1002A80083120313990083160313981C5C295D2994
:1002B8005729352883160313981C632964295E2956
:1002C800323083120313990083160313981C6D2987
:1002D8006E296829402883160313981C74297529E8
:1002E8006F29323083120313990083160313981C65
:1002F8007E297F2979294B2883160313981C852981
:100308008629802932308312031399008316031338
:10031800981C8F2990298A2956287A08F800F9010B
:100328007908003A03199929E6297808003A031947
:100338002428013A03192F28033A03193A28013AC5
:1003480003194528073A03195028013A03195B286D
:10035800033A03196628013A031971280F3A031959
:100368007C28013A03198728033A03199228013A8D
:100378000319A328073A0319B428013A0319C52811
:10038800033A0319D628013A0319E7281F3A031933
:10039800F828013A03190929033A03191A29013AD5
:1003A80003192B29073A03193C29013A03194D2946
:1003B800033A03195E29013A03196F290F3A031901
:1003C8008029E62908008316031788018901831606
:1003D80003138501FF3086008801033089009F13CD
:1003E8001F129F12831203131F179F131F08C3396D
:1003F80014389F00203083120313B800B80B022A68
:100408000000831203131F1483160313811315149A
:10041800951415159516151795170F088F39603807
:100428008F000F1481128111073081044E3083121E
:100438000313810083160313181218158316031764
:10044800871567308316031399009A0183120313E3
:100458009817181318168316031398168B178B12F0
:100468000B11831203139F148501860187018801EC
:100478008901B601B60A0B1D422A432A982A061892
:10048800462A472A592A0814033083120313B9004D
:100498009730B800B80B4E2AB90B4E2A83120313B3
:1004A8000810463081000B11982A86185C2A5D2AAC
:1004B8006F2A8814033083120313B9009730B800E9
:1004C800B80B642AB90B642A8312031388104630C8
:1004D80081000B11982A0619722A732A852A081591
:1004E800033083120313B9009730B800B80B7A2A87
:1004F800B90B7A2A831203130811463081000B11B5
:10050800982A081488140815C73083120313B800F2
:100518008D2AB80B8C2A902A83120313881008118D
:1005280008104A3081000B119F189B2A9E2A0A1234
:100538008A15BF281F0CB800380C0F39063A031D5E
:10054800A62AA92A0A128A11FA2A1E08B800380807
:10055800F3002B3073020318B22AB32AB52AF40128
:10056800F32A2B307302031CBA2ABB2AC62A553039
:1005780073020318C02AC12AC62A0F30B8003808E7
:10058800F400F32A55307302031CCB2ACC2AD72A4D
:100598007F3073020318D12AD22AD72A1E30B80016
:1005A8003808F400F32A7F307302031CDC2ADD2AA2
:1005B800E82AA93073020318E22AE32AE82A2D3030
:1005C800B8003808F400F32AD2307302031CED2A6D
:1005D800EE2AF32A3C30B8003808F400F32A1F0842
:1005E800C33914389F000A128A15B5281F0CB800A1
:1005F800380C0F39053A031D022B052B0A128A15F0
:10060800B5281E08B8003808F3000B307302031829
:100618000E2B0F2B132BF5010A128A15B1280B305C
:100628007302031C182B192B222B15307302031885
:100638001E2B1F2B222BF501F50A102B15307302E8
:10064800031C272B282B332B1F30730203182D2B49
:100658002E2B332B0230B8003808F500102B1F3032
:100668007302031C382B392B442B293073020318CF
:100678003E2B3F2B442B0330B8003808F500102BD5
:1006880029307302031C492B4A2B552B3330730234
:1006980003184F2B502B552B0430B8003808F500A1
:1006A800102B33307302031C5A2B5B2B662B3D3007
:1006B80073020318602B612B662B0530B8003808CD
:1006C800F500102B3D307302031C6B2B6C2B772B22
:1006D800473073020318712B722B772B0630B80042
:1006E8003808F500102B47307302031C7C2B7D2B38
:1006F800882B513073020318822B832B882B0730E9
:10070800B8003808F500102B51307302031C8D2BEC
:100718008E2B992B5B3073020318932B942B992BF8
:100728000830B8003808F500102B5B307302031C42
:100738009E2B9F2BAA2B653073020318A42BA52B85
:10074800AA2B0930B8003808F500102B6530730261
:10075800031CAF2BB02BBB2B6F3073020318B52BC8
:10076800B62BBB2B0A30B8003808F500102B6F30B9
:100778007302031CC02BC12BCC2B793073020318D6
:10078800C62BC72BCC2B0B30B8003808F500102B24
:1007980079307302031CD12BD22BDD2B83307302EB
:1007A8000318D72BD82BDD2B0C30B8003808F500F0
:1007B800102B83307302031CE22BE32BEE2B8D30BE
:1007C80073020318E82BE92BEE2B0D30B80038081C
:1007D800F500102B8D307302031CF32BF62B0A1235
:1007E8008A150D28973073020318FB2BFC2BF32B6B
:1007F8000E30B8003808F500102BFB007B2CF801F0
:10080800D02CF801F80AD02C0230F9007908F80049
:10081800D02C0330F9007908F800D02C0430F90006
:100828007908F800D02C0530F9007908F800D02CA8
:100838000630F9007908F800D02C0730F90079085B
:10084800F800D02C0830F9007908F800D02C0930CD
:10085800F9007908F800D02C0A30F9007908F80076
:10086800D02C0B30F9007908F800D02C0C30F900A6
:100878007908F800D02C0D30F9007908F800D02C50
:100888000E30F9007908F800D02C0F30F9007908FB
:10089800F800D02C1030F9007908F800D02C11306D
:1008A800F9007908F800D02C1230F9007908F8001E
:1008B800D02C1330F9007908F800D02C1430F90046
:1008C8007908F800D02C1530F9007908F800D02CF8
:1008D8001630F9007908F800D02C1730F90079089B
:1008E800F800D02C1830F9007908F800D02C7B08D3
:1008F800F900FA017A08003A0319832CD02C7908F8
:10090800613A0319032C033A0319052C013A031918
:10091800082C073A03190D2C013A0319122C033A33
:100928000319172C013A03191C2C0F3A0319212C0F
:10093800013A0319262C033A03192B2C013A0319FF
:10094800302C073A0319352C013A03193A2C033A8B
:1009580003193F2C013A0319442C1F3A0319492C57
:10096800013A03194E2C033A0319532C013A03197F
:10097800582C073A03195D2C013A0319622C033AE3
:100988000319672C013A03196C2C0F3A0319712CBF
:10099800013A0319762CD02C78080800FB0083163E
:1009A8000313981CD82CD92CD32C7B08031DDD2CC1
:1009B800DE2CE82CFD30F9009230FA000A128A1178
:1009C80060250A128A11282D0F307B06031DED2C95
:1009D800EE2CF82CFF30F9009230FA000A128A1136
:1009E80060250A128A11282D1E307B06031DFD2C56
:1009F800FE2C082DFC30F9009230FA000A128A11F8
:100A080060250A128A11282D2D307B06031D0D2D15
:100A18000E2D182D0230F9009330FA000A128A11AF
:100A280060250A128A11282D37307B06031D1D2DDB
:100A38001E2D282D0530F9009330FA000A128A116C
:100A480060250A128A11282D0800FA0061307A06FA
:100A5800031D2F2D302D322DF8015E2D62307A06C0
:100A6800031D372D382D3D2D0F30F9007908F8007A
:100A78005E2D63307A06031D422D432D482D1E300E
:100A8800F9007908F8005E2D64307A06031D4D2DB3
:100A98004E2D532D2D30F9007908F8005E2D653064
:100AA8007A06031D582D592D5E2D3730F900790827
:100AB800F8005E2D78080800752D7A08FF0079087F
:100AC80084000A128A1186250A128A110A128A11CA
:100AD80098250A128A110130F9070318FA0A00301A
:100AE800FA077A0883120313FF00790884000A12B0
:100AF8008A1186250A128A11003A031D842D852D34
:100B0800612D0800FF1B902D83137F1883170008A1
:100B1800840A0319FF0A08007F087F398A0004083D
:100B2800840A0319FF0A8200F80083160313981C2D
:100B38009E2D9F2D992D7808831203139900080084
:100B480064008001840A0406031900340406A52DF4
:100B580077088A00760E8300FE0E7E0E0900831247
:060B680003131A08080047
:10101A0097307302031C122813281E28A13073026A
:10102A000318182819281E280F30B8003808F500A8
:10103A00B128A1307302031C232824282F28AB309F
:10104A007302031829282A282F281030B8003808D4
:10105A00F500B128AB307302031C34283528402828
:10106A00B530730203183A283B2840281130B800DB
:10107A003808F500B128B5307302031C4528462804
:10108A005128BF30730203184B284C2851281230BC
:10109A00B8003808F500B128BF307302031C56287F
:1010AA0057286228C930730203185C285D28622811
:1010BA001330B8003808F500B128C9307302031C90
:1010CA00672868287328D330730203186D286E289E
:1010DA0073281430B8003808F500B128D3307302E9
:1010EA00031C782879288428DD30730203187E28A7
:1010FA007F2884281530B8003808F500B128DD307B
:10110A007302031C89288A289528E730730203187A
:10111A008F28902895281630B8003808F500B1288D
:10112A00E7307302031C9A289B28A628F130730221
:10113A000318A028A128A6281730B8003808F500F7
:10114A00B128F1307302031CAB28AC28B12818303F
:10115A00B8003808F500B1281F08C33918389F00AD
:10116A000F3083120313B800B80BB928BC288312B6
:10117A0003139F143603031DC328C42806294F30BE
:10118A00F9009230FA000A128A1160250A128A15A9
:10119A008D30F9009230FA000A128A1160250A127B
:1011AA008A15AB30F9009230FA000A128A116025CA
:1011BA000A128A156E30F9009230FA000A128A1160
:1011CA0060250A128A158B30F9009130FA000A124A
:1011DA008A1160250A128A15AE30F9009130FA0098
:1011EA000A128A1160250A128A154230F9009130D2
:1011FA00FA000A128A1160250A128A158312031349
:10120A00B6018C1E09290A29B62F0A128A11B3259A
:10121A000A128A1583120313B8003808B700B601F8
:10122A00B60AB62FE230F9009230FA000A128A1191
:10123A0060250A128A158312031331080A128A11C9
:10124A0022200A128A15ED30F9009230FA000A12A9
:10125A008A1160250A128A15F530F9009230FA00CF
:10126A000A128A1160250A128A15831203132808A2
:10127A000A128A11D2240A128A15D030F900913042
:10128A00FA000A128A1160250A128A15E230F90058
:10129A009230FA000A128A1160250A128A158312FC
:1012AA00031330080A128A1122200A128A15ED3015
:1012BA00F9009230FA000A128A1160250A128A1578
:1012CA00F530F9009230FA000A128A1160250A12E2
:1012DA008A158312031327080A128A11D2240A12C2
:1012EA008A15F030F9009130FA000A128A11602545
:1012FA000A128A15E230F9009230FA000A128A11AB
:10130A0060250A128A15831203132F080A128A11FA
:10131A0022200A128A15ED30F9009230FA000A12D8
:10132A008A1160250A128A15F530F9009230FA00FE
:10133A000A128A1160250A128A15831203132608D3
:10134A000A128A11D2240A128A151030F900923030
:10135A00FA000A128A1160250A128A1583120313E7
:10136A00B601B60AD22FE230F9009230FA000A1218
:10137A008A1160250A128A158312031333080A1286
:10138A008A1122200A128A15ED30F9009230FA00E9
:10139A000A128A1160250A128A15F530F90092306C
:1013AA00FA000A128A1160250A128A158312031397
:1013BA0035080A128A11D2240A128A153030F90025
:1013CA009230FA000A128A1160250A128A15B32984
:1013DA00E230F9009230FA000A128A1160250A12E4
:1013EA008A158312031332080A128A1122200A125A
:1013FA008A15ED30F9009230FA000A128A11602536
:10140A000A128A15F530F9009230FA000A128A1186
:10141A0060250A128A158312031334080A128A11E4
:10142A00D2240A128A153030F9009230FA000A12D0
:10143A008A1160250A128A15B3291B30F9009130E6
:10144A00FA000A128A1160250A128A150030F90078
:10145A009030FA000A128A1160250A128A1594300D
:10146A00F9009030FA000A128A1160250A128A15C8
:10147A006430F9009030FA000A128A1160250A12C3
:10148A008A15831203138C1E4B2A4C2A462A88304B
:10149A00F9009130FA000A128A1160250A128A1597
:1014AA000A128A11B3250A128A1583120313B80085
:1014BA003808F0008830F9009130FA000A128A11CF
:1014CA0060250A128A15710883120313B8003808B6
:1014DA00F80070080A128A1101240A128A15831266
:1014EA000313B9003908F100C430F9009030FA004A
:1014FA000A128A1160250A128A156730F90091309A
:10150A00FA000A128A1160250A128A158312031335
:10151A008C1E902A912A8B2A8830F9009130FA0081
:10152A000A128A1160250A128A150A128A11B3252B
:10153A000A128A1583120313B8003808F00088309B
:10154A00F9009130FA000A128A1160250A128A15E6
:10155A00720883120313B8003808F80070080A12D8
:10156A008A1129250A128A1583120313B900390828
:10157A00F200F030F9009030FA000A128A11602560
:10158A000A128A153430F9009030FA000A128A11C8
:10159A0060250A128A15C830F9009230FA000A1238
:1015AA008A1160250A128A15831203138C1EDE2AF9
:1015BA00DF2AD92A0A128A11B3250A128A15831236
:1015CA000313B8003808F00031307006031DEE2A04
:1015DA00EF2AF82A7108B8003808B1007208B80072
:1015EA003808A800B32932307006031DFD2AFE2AE6
:1015FA00072B7108B8003808B0007208B80038081C
:10160A00A700B32933307006031D0C2B0D2BB32909
:10161A007108B8003808AF007208B8003808A60088
:10162A00B3291B30F9009130FA000A128A11602599
:10163A000A128A150030F9009030FA000A128A114B
:10164A0060250A128A159430F9009030FA000A12BD
:10165A008A1160250A128A156430F9009030FA005E
:10166A000A128A1160250A128A15831203138C1E24
:10167A003F2B402B3A2B8830F9009130FA000A129E
:10168A008A1160250A128A150A128A11B3250A12CA
:10169A008A1583120313B8003808F0008830F9005D
:1016AA009130FA000A128A1160250A128A156130ED
:1016BA007006031D612B622B662B83120313B30181
:1016CA009C2C62307006031D6B2B6C2B712B8312C2
:1016DA000313B301B30A9C2C63307006031D762BE7
:1016EA00772B7E2B023083120313B8003808B3001D
:1016FA009C2C64307006031D832B842B8B2B0330A8
:10170A0083120313B8003808B3009C2C65307006A6
:10171A00031D902B912B982B043083120313B800CE
:10172A003808B3009C2C66307006031D9D2B9E2B37
:10173A00A52B053083120313B8003808B3009C2C7C
:10174A0067307006031DAA2BAB2BB22B063083120F
:10175A000313B8003808B3009C2C68307006031DC8
:10176A00B72BB82BBF2B073083120313B8003808E6
:10177A00B3009C2C69307006031DC42BC52BCC2BDF
:10178A00083083120313B8003808B3009C2C6A305F
:10179A007006031DD12BD22BD92B093083120313C8
:1017AA00B8003808B3009C2C6B307006031DDE2B82
:1017BA00DF2BE62B0A3083120313B8003808B30074
:1017CA009C2C6C307006031DEB2BEC2BF32B0B308F
:1017DA0083120313B8003808B3009C2C6D307006CE
:1017EA00031DF82BF92B002C0C3083120313B800BD
:1017FA003808B3009C2C6E307006031D052C062C8D
:10180A000D2C0D3083120313B8003808B3009C2C3A
:10181A006F307006031D122C132C1A2C0E308312F3
:10182A000313B8003808B3009C2C70307006031DEF
:10183A001F2C202C272C0F3083120313B8003808D2
:10184A00B3009C2C71307006031D2C2C2D2C342CCB
:10185A00103083120313B8003808B3009C2C72307E
:10186A007006031D392C3A2C412C113083120313B4
:10187A00B8003808B3009C2C73307006031D462C40
:10188A00472C4E2C123083120313B8003808B300C9
:10189A009C2C74307006031D532C542C5B2C133073
:1018AA0083120313B8003808B3009C2C75307006F5
:1018BA00031D602C612C682C143083120313B800AA
:1018CA003808B3009C2C76307006031D6D2C6E2CE4
:1018DA00752C153083120313B8003808B3009C2CFA
:1018EA0077307006031D7A2C7B2C822C16308312DB
:1018FA000313B8003808B3009C2C78307006031D17
:10190A00872C882C8F2C173083120313B8003808C1
:10191A00B3009C2C79307006031D942C952C9C2CBA
:10192A00183083120313B8003808B3009C2CC43053
:10193A00F9009030FA000A128A1160250A128A15F3
:10194A006730F9009130FA000A128A1160250A12EA
:10195A008A15831203138C1EB32CB42CAE2C883038
:10196A00F9009130FA000A128A1160250A128A15C2
:10197A000A128A11B3250A128A1583120313B800B0
:10198A003808F0008830F9009130FA000A128A11FA
:10199A0060250A128A1561307006031DD52CD62CD3
:1019AA00DA2C83120313B5010E2D62307006031D63
:1019BA00DF2CE02CE72C0F3083120313B800380811
:1019CA00B5000E2D63307006031DEC2CED2CF42CA3
:1019DA001E3083120313B8003808B5000E2D643088
:1019EA007006031DF92CFA2C012D2D3083120313D6
:1019FA00B8003808B5000E2D65307006031D062D97
:101A0A00072D0E2D373083120313B8003808B5009E
:101A1A000E2DF030F9009030FA000A128A11602572
:101A2A000A128A153430F9009030FA000A128A1123
:101A3A0060250A128A15C830F9009230FA000A1293
:101A4A008A1160250A128A15831203138C1E2E2D01
:101A5A002F2D292D0A128A11B3250A128A158312EB
:101A6A000313B8003808F00031307006031D3E2D0C
:101A7A003F2D482D7108B8003808AE007208B8002A
:101A8A003808A500B32932307006031D4D2D4E2D9E
:101A9A00572D7108B8003808AD007208B800380828
:101AAA00A400B32933307006031D5C2D5D2DB329C4
:101ABA007108B8003808AC007208B8003808A300EA
:101ACA00B3291B30F9009130FA000A128A116025F5
:101ADA000A128A150030F9009030FA000A128A11A7
:101AEA0060250A128A159430F9009030FA000A1219
:101AFA008A1160250A128A156430F9009030FA00BA
:101B0A000A128A1160250A128A15831203138C1E7F
:101B1A008F2D902D8A2D8830F9009130FA000A1203
:101B2A008A1160250A128A150A128A11B3250A1225
:101B3A008A1583120313B8003808F0008830F900B8
:101B4A009130FA000A128A1160250A128A15613048
:101B5A007006031DB12DB22DB62D83120313B201E7
:101B6A00EC2E62307006031DBB2DBC2DC12D8312D5
:101B7A000313B201B20AEC2E63307006031DC62DA0
:101B8A00C72DCE2D023083120313B8003808B200D5
:101B9A00EC2E64307006031DD32DD42DDB2D0330BB
:101BAA0083120313B8003808B200EC2E65307006B1
:101BBA00031DE02DE12DE82D043083120313B80034
:101BCA003808B200EC2E66307006031DED2DEE2D9E
:101BDA00F52D053083120313B8003808B200EC2E35
:101BEA0067307006031DFA2DFB2D022E0630831274
:101BFA000313B8003808B200EC2E68307006031DD3
:101C0A00072E082E0F2E073083120313B800380848
:101C1A00B200EC2E69307006031D142E152E1C2EF0
:101C2A00083083120313B8003808B200EC2E6A3069
:101C3A007006031D212E222E292E0930831203132A
:101C4A00B8003808B200EC2E6B307006031D2E2E39
:101C5A002F2E362E0A3083120313B8003808B2002A
:101C6A00EC2E6C307006031D3B2E3C2E432E0B309F
:101C7A0083120313B8003808B200EC2E6D307006D8
:101C8A00031D482E492E502E0C3083120313B80020
:101C9A003808B200EC2E6E307006031D552E562EF3
:101CAA005D2E0D3083120313B8003808B200EC2EF3
:101CBA006F307006031D622E632E6A2E0E30831259
:101CCA000313B8003808B200EC2E70307006031DFA
:101CDA006F2E702E772E0F3083120313B800380838
:101CEA00B200EC2E71307006031D7C2E7D2E842EE0
:101CFA00103083120313B8003808B200EC2E723089
:101D0A007006031D892E8A2E912E11308312031319
:101D1A00B8003808B200EC2E73307006031D962EF8
:101D2A00972E9E2E123083120313B8003808B20081
:101D3A00EC2E74307006031DA32EA42EAB2E133086
:101D4A0083120313B8003808B200EC2E75307006FF
:101D5A00031DB02EB12EB82E143083120313B8000F
:101D6A003808B200EC2E76307006031DBD2EBE2E4A
:101D7A00C52E153083120313B8003808B200EC2EB2
:101D8A0077307006031DCA2ECB2ED22E1630831240
:101D9A000313B8003808B200EC2E78307006031D21
:101DAA00D72ED82EDF2E173083120313B800380827
:101DBA00B200EC2E79307006031DE42EE52EEC2ECF
:101DCA00183083120313B8003808B200EC2EC4305E
:101DDA00F9009030FA000A128A1160250A128A154F
:101DEA006730F9009130FA000A128A1160250A1246
:101DFA008A15831203138C1E032F042FFE2E88309C
:101E0A00F9009130FA000A128A1160250A128A151D
:101E1A000A128A11B3250A128A1583120313B8000B
:101E2A003808F0008830F9009130FA000A128A1155
:101E3A0060250A128A1561307006031D252F262F88
:101E4A002A2F83120313B4015E2F62307006031D1A
:101E5A002F2F302F372F0F3083120313B800380873
:101E6A00B4005E2F63307006031D3C2F3D2F442FB4
:101E7A001E3083120313B8003808B4005E2F643092
:101E8A007006031D492F4A2F512F2D308312031339
:101E9A00B8003808B4005E2F65307006031D562F4F
:101EAA00572F5E2F373083120313B8003808B40057
:101EBA005E2FF030F9009030FA000A128A1160257C
:101ECA000A128A153430F9009030FA000A128A117F
:101EDA0060250A128A15C830F9009230FA000A12EF
:101EEA008A1160250A128A15831203138C1E7E2F0B
:101EFA007F2F792F0A128A11B3250A128A158312A3
:101F0A000313B8003808F00031307006031D8E2F15
:101F1A008F2F982F7108B8003808AB007208B800E4
:101F2A003808A200B32932307006031D9D2F9E2F58
:101F3A00A72F7108B8003808AA007208B800380834
:101F4A00A100B32933307006031DAC2FAD2FB3297E
:101F5A007108B8003808A9007208B8003808A0004B
:101F6A00B3293708B800B9013908003A0319BE2F56
:101F7A00D22F3808313A03191729033A0319B82915
:101F8A00013A0319ED29073A0319222A013A0319DA
:101F9A00162B033A0319662DD22F3030B8003808B1
:101FAA00B700861BD92FDA2FE22F7408B800380839
:101FBA00B4007508B8003808B200061BE52FE62FF2
:101FCA00EE2F7408B8003808B5007508B80038084C
:101FDA00B300861AF12FF42F0A128A113F2A7408C5
:101FEA00B8003808F2007508B8003808F100F12F77
:101FFA000A128A110C28203461342E3430342034E9
:10200A00203462342E343134203420342034633482
:10201A002E34323420342034203464342E34333491
:10202A0020342034203465342E343434203420349F
:10203A00203466342E343534203420342034673446
:10204A002E34363420342034203468342E34373455
:10205A002034203469342E3438340D34003420349A
:10206A00703472346534733469346F346E34653461
:10207A00203465346C3420346E34C334BA346D344D
:10208A00653472346F3420346434653420346D34EA
:10209A00653464346934633461346D3465346E3460
:1020AA0074346F34203461342034673475346134C5
:1020BA00723464346134723420340D34003472342E
:1020CA002E34313437342034203473342E343134BE
:1020DA0038342034203474342E34313439342034B2
:1020EA00203475342E34323430342034203476346B
:1020FA002E34323431342034203477342E3432348E
:10210A0032342034203478342E3432343334203488
:10211A00203479342E34323434340D3400342034BB
:10212A006A342E343934203420346B342E3431342A
:10213A003034203420346C342E3431343134203469
:10214A0020346D342E3431343234203420346E3419
:10215A002E3431343334203420346F342E34313435
:10216A0034342034203470342E343134353420342D
:10217A00203471342E34313436340D340034203462
:10218A0049346E346734723465347334C334A134D9
:10219A0020346C34613420346C34653474347234D1
:1021AA00613420346434653420346C346F347334CD
:1021BA0020346D3469346E34753474346F34733446
:1021CA0020346E347534653476346F347334203485
:1021DA0020340D340034203441346334743475347B
:1021EA0061346C346D3465346E347434653420343F
:1021FA007334653420346334753465346E3474341E
:10220A006134203463346F346E34203433342034F0
:10221A006D34653464346934633461346D346534DF
:10222A006E3474346F3473340D34003420344934CA
:10223A006E346734723465347334C334A134203451
:10224A006C34613420346C346534743472346134DF
:10225A0020346434653420346C34613420346E3470
:10226A007534653476346134203468346F347234AA
:10227A006134203420340D34003436342934203487
:10228A004D346F3464346934663469346334613488
:10229A007234203468346F3472346134723469347D
:1022AA006F3420347534733475346134723469345C
:1022BA006F342034743472346534733420340D34FA
:1022CA000D340034203461342E3430342034203438
:1022DA0062342E343134353420342034203463349B
:1022EA002E343334303420342034203464342E34C1
:1022FA003434353420342034203465342E343534A3
:10230A0035342034203420340D3400343434293424
:10231A0020344D346F346434693466346934633438
:10232A0061347234203468346F34723461347234F4
:10233A0069346F34203475347334753461347234CB
:10234A0069346F34203475346E346F3420340D346C
:10235A0000343534293420344D346F3464346934CC
:10236A0066346934633461347234203468346F34C7
:10237A0072346134723469346F342034753473348E
:10238A0075346134723469346F34203464346F3490
:10239A0073340D34003420346D3469346E3473343C
:1023AA002E3420347034613472346134203465340C
:1023BA006C3420346D346534643469346334613484
:1023CA006D3465346E3474346F34203431342034CF
:1023DA000D340D34003420346D3469346E34733462
:1023EA002E342034703461347234613420346534CC
:1023FA006C3420346D346534643469346334613444
:10240A006D3465346E3474346F342034323420348D
:10241A000D340D34003420346D3469346E34733421
:10242A002E3420347034613472346134203465348B
:10243A006C3420346D346534643469346334613403
:10244A006D3465346E3474346F342034333420344C
:10245A000D340D34003420346D3469346E347334E1
:10246A002E3420347034613472346134203465344B
:10247A006C3420346D3465346434693463346134C3
:10248A006D3465346E3474346F34203420340D3432
:10249A000D3400340D34203451347534653420340D
:1024AA0061346334633469346F346E342034643491
:1024BA006534733465346134203465346A34653480
:1024CA00633475347434613472343F3420340D34D7
:1024DA000034333429342034763465347234203469
:1024EA006434613474346F3473342034643465343E
:1024FA0020347534733475346134723469346F340A
:10250A002034743472346534733420340D34003416
:10251A0031342934203476346534723420346434C6
:10252A00613474346F347334203464346534203441
:10253A007534733475346134723469346F342034C9
:10254A0075346E346F3420340D3400343234293407
:10255A00203476346534723420346434613474340B
:10256A006F347334203464346534203475347334EE
:10257A0075346134723469346F34203464346F349E
:10258A0073340D340034203431342E34413446341B
:10259A004334203420342034203432342E34463428
:1025AA004634543420342034203433342E344434E2
:1025BA0048344C3420340D340034203445347334D8
:1025CA007034653472346134723420342034003407
:1025DA00203448346F347234613473342034003414
:1025EA00203463346F346E3420342034003433346E
:1025FA003034003431343534003434343534003432
:06260A00353435340034C4
:04400E00D430FF3F6C
:00000001FF
