:020000040000FA
:060000000A128A110C280F
:10000800FE00030EF7000A08F8000A128A11E92F09
:100018000A128A110F28F001F101F201F301F4012B
:10002800F501F60183120313A001A101A201A301A6
:10003800A401A501A601A701A801A901AA01AB0174
:10004800AC01AD0183010A168A11D02D8316031362
:10005800981C2F2830282A2832308312031399003D
:1000680083160313981C39283A2834280A128A154B
:100078007A2C83160313981C422843283D283230D3
:1000880083120313990083160313981C4C284D28D8
:1000980047280A128A15852C83160313981C55289D
:1000A80056285028323083120313990083160313FD
:1000B800981C5F2860285A280A128A15902C8316E3
:1000C8000313981C682869286328323083120313A5
:1000D800990083160313981C722873286D280A1236
:1000E8008A159B2C831203132908AE00AF012F0831
:1000F800003A03198028D1282E08003A0A128A15D6
:100108000319672C013A0319742C033A03197F2C3D
:10011800013A03198A2C073A0319952C013A031955
:10012800A02C033A0319AB2C013A0319B62C0F3A49
:100138000319C12C013A0319CC2C033A0319D72C03
:10014800013A0319E82C073A0319F92C013A031963
:100158000A2D033A03191B2D013A03192C2D1F3AB6
:1001680003193D2D013A03194E2D033A03195F2D4A
:10017800013A0319702D0A128A11073A03199F2FA1
:10018800013A03192A28033A03193D28013A0319A9
:1001980050280F3A03196328D1288D30FA008A3085
:1001A800FB000A128A11A5270A128A119530FA0053
:1001B8008A30FB000A128A11A5270A128A118316AF
:1001C8000313981CE828E928E3287108031DED2883
:1001D800EE28F8289D30FA008A30FB000A128A11AE
:1001E800A5270A128A1138290F307106031DFD2828
:1001F800FE280829A230FA008A30FB000A128A1168
:10020800A5270A128A1138291E307106031D0D29E7
:100218000E2918299C30FA008A30FB000A128A112C
:10022800A5270A128A1138292D307106031D1D29A8
:100238001E292829A530FA008A30FB000A128A11E3
:10024800A5270A128A1138293C307106031D2D2969
:100258002E2938299F30FA008A30FB000A128A11A9
:10026800A5270A128A113829D030FA008930FB00F4
:100278000A128A11A5270A128A11382B1B30FA0094
:100288008930FB000A128A11A5270A128A11003048
:10029800FA008830FB000A128A11A5270A128A116F
:1002A8009430FA008830FB000A128A11A5270A1236
:1002B8008A116430FA008830FB000A128A11A527D7
:1002C8000A128A11831203138C1E6B296C29662962
:1002D8008830FA008930FB000A128A11A5270A1211
:1002E8008A110A128A11F0270A128A11831203133B
:1002F800AE002E08F0008830FA008930FB000A12A0
:100308008A11A5270A128A1161307006031D8D29EA
:100318008E29922983120313AB01C82A6230700612
:10032800031D972998299D2983120313AB01AB0A52
:10033800C82A63307006031DA229A329AA290230FE
:1003480083120313AE002E08AB00C82A643070066F
:10035800031DAF29B029B729033083120313AE0058
:100368002E08AB00C82A65307006031DBC29BD29BC
:10037800C429043083120313AE002E08AB00C82A28
:1003880066307006031DC929CA29D1290530831290
:100398000313AE002E08AB00C82A67307006031D91
:1003A800D629D729DE29063083120313AE002E087A
:1003B800AB00C82A68307006031DE329E429EB293D
:1003C800073083120313AE002E08AB00C82A693029
:1003D8007006031DF029F129F82908308312031348
:1003E800AE002E08AB00C82A6A307006031DFD292E
:1003F800FE29052A093083120313AE002E08AB002C
:10040800C82A6B307006031D0A2A0B2A122A0A30E2
:1004180083120313AE002E08AB00C82A6C30700696
:10042800031D172A182A1F2A0B3083120313AE0044
:100438002E08AB00C82A6D307006031D242A252A11
:100448002C2A0C3083120313AE002E08AB00C82AE6
:100458006E307006031D312A322A392A0D30831274
:100468000313AE002E08AB00C82A6F307006031DB8
:100478003E2A3F2A462A0E3083120313AE002E0866
:10048800AB00C82A70307006031D4B2A4C2A532A29
:100498000F3083120313AE002E08AB00C82A713048
:1004A8007006031D582A592A602A10308312031334
:1004B800AE002E08AB00C82A72307006031D652AEC
:1004C800662A6D2A113083120313AE002E08AB0082
:1004D800C82A73307006031D722A732A7A2A1230CA
:1004E80083120313AE002E08AB00C82A74307006BE
:1004F800031D7F2A802A872A133083120313AE0034
:100508002E08AB00C82A75307006031D8C2A8D2A68
:10051800942A143083120313AE002E08AB00C82AA5
:1005280076307006031D992A9A2AA12A153083125B
:100538000313AE002E08AB00C82A77307006031DDF
:10054800A62AA72AAE2A163083120313AE002E0855
:10055800AB00C82A78307006031DB32AB42ABB2A18
:10056800173083120313AE002E08AB00C82A793067
:100578007006031DC02AC12AC82A18308312031323
:10058800AE002E08AB00C82AC430FA008830FB0041
:100598000A128A11A5270A128A116730FA008930CF
:1005A800FB000A128A11A5270A128A118312031363
:1005B8008C1EDF2AE02A3B2B8830FA008930FB00AA
:1005C8000A128A11A5270A128A110A128A11F0271B
:1005D8000A128A1183120313AE002E08F000883025
:1005E800FA008930FB000A128A11A5270A128A111B
:1005F80061307006031D012B022B042BF301382BED
:1006080062307006031D092B0A2B112B0F30831241
:100618000313AE002E08F300382B63307006031D59
:10062800162B172B1E2B1E3083120313AE002E0819
:10063800F300382B64307006031D232B242B2B2B3F
:100648002D3083120313AE002E08F300382B6530CB
:100658007006031D302B312B382B373083120313D0
:10066800AE002E08F300382B0A128A15512CF030F0
:10067800FA008830FB000A128A11A5270A128A118B
:100688003430FA008830FB000A128A11A5270A12B2
:100698008A116830FA008A30FB000A128A11A527ED
:1006A8000A128A11831203138C1E5B2B5C2B562BA8
:1006B800DA2A1B30FA008930FB000A128A11A527B2
:1006C8000A128A110030FA008830FB000A128A11D7
:1006D800A5270A128A119430FA008830FB000A1202
:1006E8008A11A5270A128A116430FA008830FB00A3
:1006F8000A128A11A5270A128A11831203138C1E63
:10070800862B872B812B8830FA008930FB000A1250
:100718008A11A5270A128A110A128A11F0270A12C9
:100728008A1183120313AE002E08F0008830FA00F5
:100738008930FB000A128A11A5270A128A11613032
:100748007006031DA82BA92BAD2B83120313AA0136
:10075800E32C62307006031DB22BB32BB82B831227
:100768000313AA01AA0AE32C63307006031DBD2BEC
:10077800BE2BC52B023083120313AE002E08AA002D
:10078800E32C64307006031DCA2BCB2BD22B03300D
:1007980083120313AE002E08AA00E32C65307006FE
:1007A800031DD72BD82BDF2B043083120313AE0085
:1007B8002E08AA00E32C66307006031DE42BE52BF7
:1007C800EC2B053083120313AE002E08AA00E32C8D
:1007D80067307006031DF12BF22BF92B06308312BC
:1007E8000313AE002E08AA00E32C68307006031D20
:1007F800FE2BFF2B062C073083120313AE002E08A6
:10080800AA00E32C69307006031D0B2C0C2C132C4A
:10081800083083120313AE002E08AA00E32C6A30B6
:100828007006031D182C192C202C09308312031371
:10083800AE002E08AA00E32C6B307006031D252C91
:10084800262C2D2C0A3083120313AE002E08AA0082
:10085800E32C6C307006031D322C332C3A2C0B30F1
:1008680083120313AE002E08AA00E32C6D30700625
:10087800031D3F2C402C472C0C3083120313AE0071
:100888002E08AA00E32C6E307006031D4C2C4D2C4C
:10089800542C0D3083120313AE002E08AA00E32C4B
:1008A8006F307006031D592C5A2C612C0E308312A0
:1008B8000313AE002E08AA00E32C70307006031D47
:1008C800662C672C6E2C0F3083120313AE002E0893
:1008D800AA00E32C71307006031D732C742C7B2C3A
:1008E800103083120313AE002E08AA00E32C7230D6
:1008F8007006031D802C812C882C11308312031361
:10090800AE002E08AA00E32C73307006031D8D2C50
:100918008E2C952C123083120313AE002E08AA00D9
:10092800E32C74307006031D9A2C9B2CA22C1330D8
:1009380083120313AE002E08AA00E32C753070064C
:10094800031DA72CA82CAF2C143083120313AE0060
:100958002E08AA00E32C76307006031DB42CB52CA3
:10096800BC2C153083120313AE002E08AA00E32C0A
:1009780077307006031DC12CC22CC92C1630831287
:100988000313AE002E08AA00E32C78307006031D6E
:10099800CE2CCF2CD62C173083120313AE002E0882
:1009A800AA00E32C79307006031DDB2CDC2CE32C29
:1009B800183083120313AE002E08AA00E32CC430AB
:1009C800FA008830FB000A128A11A5270A128A1138
:1009D8006730FA008930FB000A128A11A5270A122B
:1009E8008A11831203138C1EFA2CFB2CF52C8830E9
:1009F800FA008930FB000A128A11A5270A128A1107
:100A08000A128A11F0270A128A1183120313AE0000
:100A18002E08F0008830FA008930FB000A128A118B
:100A2800A5270A128A1161307006031D1C2D1D2D81
:100A38001F2DF201382B62307006031D242D252D41
:100A48002C2D0F3083120313AE002E08F200382B22
:100A580063307006031D312D322D392D1E3083125F
:100A68000313AE002E08F200382B64307006031D05
:100A78003E2D3F2D462D2D3083120313AE002E0838
:100A8800F200382B65307006031D4B2D4C2D382B8A
:100A9800373083120313AE002E08F200382B1B30B8
:100AA800FA008930FB000A128A11A5270A128A1156
:100AB8000030FA008830FB000A128A11A5270A12B2
:100AC8008A119430FA008830FB000A128A11A5278F
:100AD8000A128A116430FA008830FB000A128A115F
:100AE800A5270A128A11831203138C1E7C2D7D2DD3
:100AF800772D8830FA008930FB000A128A11A52761
:100B08000A128A110A128A11F0270A128A1183120C
:100B18000313AE002E08F0008830FA008930FB007D
:100B28000A128A11A5270A128A1161307006031D5C
:100B38009E2D9F2DA32D83120313A901D92E623058
:100B48007006031DA82DA92DAE2D83120313A9012C
:100B5800A90AD92E63307006031DB32DB42DBB2D01
:100B6800023083120313AE002E08A900D92E643078
:100B78007006031DC02DC12DC82D03308312031329
:100B8800AE002E08A900D92E65307006031DCD2DA4
:100B9800CE2DD52D043083120313AE002E08A900E4
:100BA800D92E66307006031DDA2DDB2DE22D0530B7
:100BB80083120313AE002E08A900D92E67307006E1
:100BC800031DE72DE82DEF2D063083120313AE0029
:100BD8002E08A900D92E68307006031DF42DF52DB6
:100BE800FC2D073083120313AE002E08A900D92E5E
:100BF80069307006031D012E022E092E083083125B
:100C08000313AE002E08A900D92E6A307006031D02
:100C18000E2E0F2E162E093083120313AE002E0847
:100C2800A900D92E6B307006031D1B2E1C2E232EF7
:100C38000A3083120313AE002E08A900D92E6C3097
:100C48007006031D282E292E302E0B308312031315
:100C5800AE002E08A900D92E6D307006031D352E62
:100C6800362E3D2E0C3083120313AE002E08A90039
:100C7800D92E6E307006031D422E432E4A2E0D309B
:100C880083120313AE002E08A900D92E6F30700608
:100C9800031D4F2E502E572E0E3083120313AE0015
:100CA8002E08A900D92E70307006031D5C2E5D2E0B
:100CB800642E0F3083120313AE002E08A900D92E1C
:100CC80071307006031D692E6A2E712E1030831242
:100CD8000313AE002E08A900D92E72307006031D2A
:100CE800762E772E7E2E113083120313AE002E0837
:100CF800A900D92E73307006031D832E842E8B2EE7
:100D0800123083120313AE002E08A900D92E7430B6
:100D18007006031D902E912E982E13308312031304
:100D2800AE002E08A900D92E75307006031D9D2E21
:100D38009E2EA52E143083120313AE002E08A90090
:100D4800D92E76307006031DAA2EAB2EB22E153082
:100D580083120313AE002E08A900D92E773070062F
:100D6800031DB72EB82EBF2E163083120313AE0004
:100D78002E08A900D92E78307006031DC42EC52E62
:100D8800CC2E173083120313AE002E08A900D92EDB
:100D980079307006031DD12ED22ED92E1830831229
:100DA8000313AE002E08A900D92EC430FA008830EB
:100DB800FB000A128A11A5270A128A116730FA0065
:100DC8008930FB000A128A11A5270A128A11831298
:100DD80003138C1EF02EF12EEB2E8830FA0089308A
:100DE800FB000A128A11A5270A128A110A128A110F
:100DF800F0270A128A1183120313AE002E08F0009E
:100E08008830FA008930FB000A128A11A5270A12D5
:100E18008A1161307006031D122F132F152FF1014F
:100E2800382B62307006031D1A2F1B2F222F0F300C
:100E380083120313AE002E08F100382B63307006BE
:100E4800031D272F282F2F2F1E3083120313AE00C8
:100E58002E08F100382B64307006031D342F352F0F
:100E68003C2F2D3083120313AE002E08F100382BCF
:100E780065307006031D412F422F382B37308312FF
:100E88000313AE002E08F100382B2D08AE00AF0179
:100E98002F08003A0319512F652F2E08313A0319EC
:100EA800962F033A03199C2F013A0319A22F073AE8
:100EB80003194229013A03195D2B033A0319532DEB
:100EC800652F3030AE002E08AD00861B6C2F6D2FBD
:100ED800752F7508AE002E08F1007608AE002E08B2
:100EE800A900061B782F792F812F7508AE002E08D0
:100EF800F2007608AE002E08AA00861A842F872FE3
:100F08000A168A11282E7508AE002E08F3007608F6
:100F1800AE002E08AB00842F0A128A110C280A1280
:100F28008A15EF2F0A128A15C92E0A128A15B82EA9
:100F38000A128A15922D0A128A15812D0A128A150B
:100F48005B2CBA2F7B08FF007A0884000A128A11EA
:100F5800CB270A128A110A128A11DD270A128A116E
:100F68000130FA070318FB0A0030FB077B088312DD
:100F78000313FF007A0884000A128A11CB270A1289
:100F88008A11003A031DC92FCA2FA62F0800FF1B7C
:100F9800D52F83137F1883170008840A0319FF0AC3
:100FA80008007F087F398A000408840A0319FF0AA9
:100FB8008200F90083160313981CE32FE42FDE2F19
:100FC8007908831203139900080078088A00770EBD
:100FD8008300FE0E7E0E0900831203131A08080010
:10100000203461342E3430342034203462342E3491
:10101000313420342034203463342E3432342034BC
:101020002034203464342E343334203420342034BB
:1010300065342E34343420342034203466342E3455
:10104000353420342034203467342E343634203480
:101050002034203468342E3437342034203469343A
:101060002E3438340D340034203470347234653406
:10107000733469346F346E346534203465346C34C1
:1010800020346E34C334BA346D34653472346F3402
:1010900020346434653420346D3465346434693408
:1010A000633461346D3465346E3474346F34203499
:1010B000613420346734753461347234643461349B
:1010C000723420340D34003472342E3431343734D9
:1010D0002034203473342E343134383420342034E6
:1010E00074342E34313439342034203475342E3471
:1010F000323430342034203476342E3432343134A7
:101100002034203477342E343234323420342034B6
:1011100078342E34323433342034203479342E343D
:10112000323434340D34003420346A342E343934BB
:10113000203420346B342E34313430342034203495
:101140006C342E3431343134203420346D342E3428
:1011500031343234203420346E342E34313433344C
:10116000203420346F342E3431343434203420345D
:1011700070342E34313435342034203471342E34EC
:10118000313436340D340034203449346E3467340D
:10119000723465347334C334A13420346C34613414
:1011A00020346C34653474347234613420346434E3
:1011B000653420346C346F34733420346D346934C6
:1011C0006E34753474346F34733420346E34753443
:1011D000653476346F347334203420340D34003465
:1011E0002034413463347434753461346C346D3478
:1011F00065346E347434653420347334653420348B
:101200006334753465346E3474346134203463343B
:101210006F346E342034333420346D3465346434A8
:101220006934633461346D3465346E3474346F34CE
:1012300073340D340034203449346E3467347234DE
:1012400065347334C334A13420346C3461342034B5
:101250006C346534743472346134203464346534ED
:1012600020346C34613420346E3475346534763413
:101270006134203468346F34723461342034203463
:101280000D3400343634293420344D346F34643412
:1012900069346634693463346134723420346834B8
:1012A0006F3472346134723469346F34203475347D
:1012B000733475346134723469346F342034743467
:1012C00072346534733420340D340D3400342034DA
:1012D00061342E3430342034203462342E343134AE
:1012E000353420342034203463342E3433343034D5
:1012F00020342034203464342E34343435342034D3
:101300002034203465342E343534353420342034C0
:1013100020340D3400343434293420344D346F34C7
:10132000643469346634693463346134723420342B
:1013300068346F3472346134723469346F342034F9
:101340007534733475346134723469346F342034D5
:1013500075346E346F3420340D3400343534293410
:1013600020344D346F346434693466346934633402
:1013700061347234203468346F34723461347234BE
:1013800069346F3420347534733475346134723495
:1013900069346F34203464346F3473340D34003462
:1013A00020346D3469346E3473342E342034703408
:1013B000613472346134203465346C3420346D34DB
:1013C000653464346934633461346D3465346E3447
:1013D00074346F34203420340D340D3400340D3423
:1013E00020345134753465342034613463346334CB
:1013F00069346F346E342034643465347334653446
:101400006134203465346A3465346334753474343B
:10141000613472343F3420340D3400343334293491
:101420002034763465347234203464346134743456
:101430006F34733420346434653420347534733439
:1014400075346134723469346F34203474347234D6
:101450006534733420340D3400343134293420346D
:1014600076346534723420346434613474346F34C7
:1014700073342034643465342034753473347534F3
:101480006134723469346F34203475346E346F349F
:1014900020340D3400343234293420347634653429
:1014A000723420346434613474346F3473342034CF
:1014B0006434653420347534733475346134723473
:1014C00069346F34203464346F3473340D34003431
:1014D000203431342E3441344634433420342034E3
:1014E0002034203432342E344634463454342034BC
:1014F0002034203433342E34443448344C342034B3
:101500000D3400342034453473347034653472340F
:1015100061347234203420340034203448346F3441
:1015200072346134733420340034203463346F34C3
:101530006E342034203400343334303400343634C4
:1015400030340034313435340034343435340034FC
:1016740083160313981C3F2B402B3A2B32308312D2
:101684000313990083160313981C492B4A2B442BEC
:101694000A128A15E82E83160313981C522B532B17
:1016A4004D2B323083120313990083160313981CB5
:1016B4005C2B5D2B572B0A128A15F32E831603130A
:1016C400981C652B662B602B323083120313990010
:1016D40083160313981C6F2B702B6A2B0A128A151E
:1016E400FE2E83160313981C782B792B732B323020
:1016F40083120313990083160313981C822B832BE4
:101704007D2B0A128A15092F831203132B08AE00AE
:10171400AF012F08003A0319902BE12B2E08003A51
:101724000A128A150319D52E013A0319E22E033A37
:101734000319ED2E013A0319F82E073A0319032F62
:10174400013A03190E2F033A0319192F013A031909
:10175400242F0F3A03192F2F013A03193A2F033A72
:101764000319452F013A0319562F073A0319672F16
:10177400013A0319782F033A0319892F013A0319FF
:101784009A2F1F3A0319AB2F013A0319BC2F033ABE
:101794000319CD2F013A0319DE2F0A128A15073ACD
:1017A4000319582C013A03193A2B033A03194D2B08
:1017B400013A0319602B0F3A0319732BE12B8D3077
:1017C400FA008A30FB000A128A11A5270A128A1528
:1017D4009530FA008A30FB000A128A11A5270A12F2
:1017E4008A1583160313981CF82BF92BF32B730813
:1017F400031DFD2BFE2B082C9D30FA008A30FB00C4
:101804000A128A11A5270A128A15482C0F3073066A
:10181400031D0D2C0E2C182CA230FA008A30FB006C
:101824000A128A11A5270A128A15482C1E3073063B
:10183400031D1D2C1E2C282C9C30FA008A30FB0022
:101844000A128A11A5270A128A15482C2D3073060C
:10185400031D2D2C2E2C382CA530FA008A30FB00C9
:101864000A128A11A5270A128A15482C3C307306DD
:10187400031D3D2C3E2C482C9F30FA008A30FB007F
:101884000A128A11A5270A128A15482CD030FA00A8
:101894008930FB000A128A11A5270A128A158312BD
:1018A4000313AC01AC0A0A128A11652F0A128A11B9
:1018B400932F8230FA008A30FB000A128A11A5277E
:1018C4000A128A150A128A11762883160313981CA1
:1018D4006C2C6D2C672C30308312031399000A1280
:1018E4008A11D12883160313981C792C7A2C742C12
:1018F4003130831203139900712C83160313981C3F
:10190400842C852C7F2C3230831203139900712C84
:1019140083160313981C8F2C902C8A2C333083123B
:1019240003139900712C83160313981C9A2C9B2C77
:10193400952C3430831203139900712C83160313EE
:10194400981CA52CA62CA02C3530831203139900C7
:10195400712C83160313981CB02CB12CAB2C36308D
:10196400831203139900712C83160313981CBB2C48
:10197400BC2CB62C3730831203139900712C8316B8
:101984000313981CC62CC72CC12C383083120313A4
:101994009900712C83160313981CD12CD22CCC2CB7
:1019A4003930831203139900712C83160313981C86
:1019B400DC2CDD2CD72C31308312031399008316D1
:1019C4000313981CE62CE72CE12C6D2C83160313CF
:1019D400981CED2CEE2CE82C313083120313990063
:1019E40083160313981CF72CF82CF22C7A2C8316EC
:1019F4000313981CFE2CFF2CF92C31308312031393
:101A0400990083160313981C082D092D032D852C8A
:101A140083160313981C0F2D102D0A2D31308312B9
:101A24000313990083160313981C192D1A2D142DD2
:101A3400902C83160313981C202D212D1B2D31303F
:101A440083120313990083160313981C2A2D2B2D3C
:101A5400252D9B2C83160313981C312D322D2C2DF0
:101A6400313083120313990083160313981C3B2D02
:101A74003C2D362DA62C83160313981C422D432D82
:101A84003D2D313083120313990083160313981CE0
:101A94004C2D4D2D472DB12C83160313981C532D1B
:101AA400542D4E2D313083120313990083160313E2
:101AB400981C5D2D5E2D582DBC2C83160313981C89
:101AC400642D652D5F2D3130831203139900831625
:101AD4000313981C6E2D6F2D692DC72C83160313C9
:101AE400981C752D762D702D3130831203139900B7
:101AF40083160313981C7F2D802D7A2DD22C8316E8
:101B04000313981C862D872D812D323083120313E5
:101B1400990083160313981C902D912D8B2D6D2CF9
:101B24008230FA008A30FB000A128A11A5270A12B1
:101B34008A150A168A112F2F83160313981CA32DB6
:101B4400A42D9E2D30308312031399000A168A1196
:101B54008A2F83160313981CB02DB12DAB2D313071
:101B6400831203139900A82D83160313981CBB2D0D
:101B7400BC2DB62D3230831203139900A82D831681
:101B84000313981CC62DC72DC12D333083120313A4
:101B94009900A82D83160313981CD12DD22DCC2D7A
:101BA4003430831203139900A82D83160313981C51
:101BB400DC2DDD2DD72D3530831203139900A82D8C
:101BC40083160313981CE72DE82DE22D363083127B
:101BD40003139900A82D83160313981CF22DF32DDB
:101BE400ED2D3730831203139900A82D83160313A8
:101BF400981CFD2DFE2DF82D383083120313990007
:101C0400A82D83160313981C082E092E032E393091
:101C1400831203139900A82D83160313981C132E03
:101C2400142E0E2E313083120313990083160313DE
:101C3400981C1D2E1E2E182EA42D83160313981CDB
:101C4400242E252E1F2E3130831203139900831660
:101C54000313981C2E2E2F2E292EB12D8316031319
:101C6400981C352E362E302E3130831203139900F2
:101C740083160313981C3F2E402E3A2EBC2D831638
:101C84000313981C462E472E412E31308312031322
:101C9400990083160313981C502E512E4B2EC72DDA
:101CA40083160313981C572E582E522E313083124C
:101CB4000313990083160313981C612E622E5C2E65
:101CC400D22D83160313981C682E692E632E31308F
:101CD40083120313990083160313981C722E732E18
:101CE4006D2EDD2D83160313981C792E7A2E742EF7
:101CF400313083120313990083160313981C832E27
:101D0400842E7E2EE82D83160313981C8A2E8B2E88
:101D1400852E313083120313990083160313981C04
:101D2400942E952E8F2EF32D83160313981C9B2E21
:101D34009C2E962E313083120313990083160313BD
:101D4400981CA52EA62EA02EFE2D83160313981CD8
:101D5400AC2EAD2EA72E31308312031399008316B7
:101D64000313981CB62EB72EB12E092E8316031317
:101D7400981CBD2EBE2EB82E323083120313990048
:101D840083160313981CC72EC82EC22EA42D82308E
:101D9400FA008A30FB000A128A11A5270A128A1552
:101DA4000A128A15862B83160313981CDA2EDB2E4F
:101DB400D52E30308312031399000A128A15E12BB1
:101DC40083160313981CE72EE82EE22E313083127B
:101DD40003139900DF2E83160313981CF22EF32E9F
:101DE400ED2E3230831203139900DF2E8316031372
:101DF400981CFD2EFE2EF82E333083120313990007
:101E0400DF2E83160313981C082F092F032F343059
:101E1400831203139900DF2E83160313981C132FC8
:101E2400142F0E2F3530831203139900DF2E8316DF
:101E34000313981C1E2F1F2F192F363083120313E0
:101E44009900DF2E83160313981C292F2A2F242F81
:101E54003730831203139900DF2E83160313981C63
:101E6400342F352F2F2F3830831203139900DF2E90
:101E740083160313981C3F2F402F3A2F39308312B7
:101E840003139900DF2E83160313981C4A2F4B2F3C
:101E9400452F313083120313990083160313981CC2
:101EA400542F552F4F2FDB2E83160313981C5B2FB3
:101EB4005C2F562F313083120313990083160313BA
:101EC400981C652F662F602FE82E83160313981C29
:101ED4006C2F6D2F672F31308312031399008316F3
:101EE4000313981C762F772F712FF32E8316031369
:101EF400981C7D2F7E2F782F313083120313990085
:101F040083160313981C872F882F822FFE2E831687
:101F14000313981C8E2F8F2F892F313083120313B4
:101F2400990083160313981C982F992F932F092F28
:101F340083160313981C9F2FA02F9A2F31308312DE
:101F44000313990083160313981CA92FAA2FA42FF7
:101F5400142F83160313981CB02FB12FAB2F3130DD
:101F640083120313990083160313981CBA2FBB2FF3
:101F7400B52F1F2F83160313981CC12FC22FBC2FFC
:101F8400313083120313990083160313981CCB2F4B
:101F9400CC2FC62F2A2F83160313981CD22FD32F8E
:101FA400CD2F313083120313990083160313981C29
:101FB400DC2FDD2FD72F352F83160313981CE32F27
:101FC400E42FDE2F31308312031399008316031399
:101FD400981CED2FEE2FE82F402F83160313981C27
:101FE400F42FF52FEF2F3230831203139900831649
:0C1FF4000313981CFE2FFF2FF92FDB2E8B
:10277A001F0CAE002E0C0F39053A031DC52BC82BB2
:10278A000A168A116C2D1E08AE002E08F4000B30B2
:10279A0074020318D12BD22BD62BF6010A168A11F2
:1027AA00682D0B307402031CDB2BDC2BE52B153058
:1027BA0074020318E12BE22BE52BF601F60AD32B60
:1027CA0015307402031CEA2BEB2BF62B1F30740214
:1027DA000318F02BF12BF62B0230AE002E08F60070
:1027EA00D32B1F307402031CFB2BFC2B072C293024
:1027FA0074020318012C022C072C0330AE002E0899
:10280A00F600D32B29307402031C0C2C0D2C182C27
:10281A00333074020318122C132C182C0430AE0017
:10282A002E08F600D32B33307402031C1D2C1E2CE9
:10283A00292C3D3074020318232C242C292C053012
:10284A00AE002E08F600D32B3D307402031C2E2C4A
:10285A002F2C3A2C473074020318342C352C3A2C7E
:10286A000630AE002E08F600D32B47307402031C44
:10287A003F2C402C4B2C513074020318452C462C0B
:10288A004B2C0730AE002E08F600D32B51307402C1
:10289A00031C502C512C5C2C5B3074020318562CF0
:1028AA00572C5C2C0830AE002E08F600D32B5B3078
:1028BA007402031C612C622C6D2C6530740203189F
:1028CA00672C682C6D2C0930AE002E08F600D32B2D
:1028DA0065307402031C722C732C7E2C6F307402C8
:1028EA000318782C792C7E2C0A30AE002E08F600BC
:1028FA00D32B6F307402031C832C842C8F2C7930D9
:10290A0074020318892C8A2C8F2C0B30AE002E08E7
:10291A00F600D32B79307402031C942C952CA02C2E
:10292A008330740203189A2C9B2CA02C0C30AE0016
:10293A002E08F600D32B83307402031CA52CA62C78
:10294A00B12C8D3074020318AB2CAC2CB12C0D3089
:10295A00AE002E08F600D32B8D307402031CB62C61
:10296A00B92C0A168A11C42C973074020318BE2C8B
:10297A00BF2CB62C0E30AE002E08F600D32B9730A3
:10298A007402031CC92CCA2CD52CA130740203185A
:10299A00CF2CD02CD52C0F30AE002E08F600682D87
:1029AA00A1307402031CDA2CDB2CE62CAB30740247
:1029BA000318E02CE12CE62C1030AE002E08F600AD
:1029CA00682DAB307402031CEB2CEC2CF72CB530C1
:1029DA0074020318F12CF22CF72C1130AE002E08D9
:1029EA00F600682DB5307402031CFC2CFD2C082D52
:1029FA00BF3074020318022D032D082D1230AE00C9
:102A0A002E08F600682DBF307402031C0D2D0E2D02
:102A1A00192DC93074020318132D142D192D1330D2
:102A2A00AE002E08F600682DC9307402031C1E2D54
:102A3A001F2D2A2DD33074020318242D252D2A2D5B
:102A4A001430AE002E08F600682DD3307402031C31
:102A5A002F2D302D3B2DDD3074020318352D362DE8
:102A6A003B2D1530AE002E08F600682DDD307402BD
:102A7A00031C402D412D4C2DE73074020318462DBE
:102A8A00472D4C2D1630AE002E08F600682DE73083
:102A9A007402031C512D522D5D2DF130740203185E
:102AAA00572D582D5D2D1730AE002E08F600682DD3
:102ABA00F1307402031C622D632D682D1830AE00AC
:102ACA002E08F600682D1F08C33918389F000F30EA
:102ADA0083120313AE00AE0B702D732D83120313F2
:102AEA009F142C03031D7A2D7B2DBD2DEF30FA0088
:102AFA008930FB000A128A11A5270A168A112D307D
:102B0A00FA008A30FB000A128A11A5270A168A11CE
:102B1A004B30FA008A30FB000A128A11A5270A16DE
:102B2A008A110E30FA008A30FB000A128A11A52790
:102B3A000A168A118B30FA008930FB000A128A11B0
:102B4A00A5270A168A11AE30FA008930FB000A124C
:102B5A008A11A5270A168A114230FA008930FB0029
:102B6A000A128A11A5270A168A1183120313AC01C5
:102B7A008C1EC02DC32D0A128A11492F0A128A11DE
:102B8A00F0270A168A1183120313AE002E08AD002D
:102B9A00AC01AC0AC02D831603178801890183167C
:102BAA0003138501FF3086008801033089009F13D3
:102BBA001F129F12831203131F179F131F08C33973
:102BCA0014389F00203083120313AE00AE0BEB2D96
:102BDA000000831203131F148316031381131514A1
:102BEA00951415159516151795170F088F3960380E
:102BFA008F000F1481128111073081044E30831225
:102C0A00031381008316031318121815831603176A
:102C1A00871567308316031399009A0183120313E9
:102C2A009817181318168316031398168B178B12F6
:102C3A000B11831203139F148501860187018801F2
:102C4A008901AC01AC0A0B1D2B2E2C2E812E0618E5
:102C5A002F2E302E422E0814033083120313AF0096
:102C6A009730AE00AE0B372EAF0B372E83120313FD
:102C7A000810463081000B11812E8618452E462EEB
:102C8A00582E8814033083120313AF009730AE0016
:102C9A00AE0B4D2EAF0B4D2E831203138810463008
:102CAA0081000B11812E06195B2E5C2E6E2E0815E3
:102CBA00033083120313AF009730AE00AE0B632EBE
:102CCA00AF0B632E831203130811463081000B11D8
:102CDA00812E081488140815C73083120313AE0016
:102CEA00762EAE0B752E792E8312031388100811D7
:102CFA0008104A3081000B119F18842E872E0A165D
:102D0A008A11762D1F0CAE002E0C0F39063A031DC0
:102D1A008F2E922E0A168A11BD2B1E08AE002E087F
:102D2A00F4002B30740203189B2E9C2E9E2EF50164
:102D3A00DC2E2B307402031CA32EA42EAF2E55308A
:102D4A0074020318A92EAA2EAF2E0F30AE002E0839
:102D5A00F500DC2E55307402031CB42EB52EC02E9D
:102D6A007F3074020318BA2EBB2EC02E1E30AE005E
:102D7A002E08F500DC2E7F307402031CC52EC62EE9
:102D8A00D12EA93074020318CB2ECC2ED12E2D3081
:102D9A00AE002E08F500DC2ED2307402031CD62EAB
:102DAA00D72EDC2E3C30AE002E08F500DC2E1F0894
:102DBA00C33914389F000A168A116C2D831603131F
:102DCA00981CE82EE92EE32E323083120313990061
:102DDA0083160313981CF22EF32EED2E0A128A156F
:102DEA00B12D83160313981CFB2EFC2EF62E3230BF
:102DFA0083120313990083160313981C052F062FB9
:102E0A00002F0A128A15BC2D83160313981C0E2F45
:102E1A000F2F092F323083120313990083160313DD
:102E2A00981C182F192F132F0A128A15C72D8316CB
:102E3A000313981C212F222F1C2F323083120313C5
:102E4A00990083160313981C2B2F2C2F262F0A1256
:102E5A008A15D22D831203132A08AE00AF012F0858
:102E6A00003A0319392F8A2F2E08003A0A128A15B6
:102E7A0003199E2D013A0319AB2D033A0319B62DF6
:102E8A00013A0319C12D073A0319CC2D013A031946
:102E9A00D72D033A0319E22D013A0319ED2D0F3A02
:102EAA000319F82D013A0319032E033A03190E2EBA
:102EBA00013A03191F2E073A0319302E013A031952
:102ECA00412E033A0319522E013A0319632E1F3A6F
:102EDA000319742E013A0319852E033A0319962E03
:102EEA00013A0319A72E0A168A11073A0319FD2F68
:102EFA00013A0319E32E033A0319F62E013A03198C
:102F0A00092F0F3A03191C2F8A2F8D30FA008A30A5
:102F1A00FB000A128A11A5270A168A119530FA00AF
:102F2A008A30FB000A128A11A5270A168A1183160B
:102F3A000313981CA12FA22F9C2F7208031DA62FE2
:102F4A00A72FB12F9D30FA008A30FB000A128A118E
:102F5A00A5270A168A11F12F0F307206031DB62F04
:102F6A00B72FC12FA230FA008A30FB000A128A1149
:102F7A00A5270A168A11F12F1E307206031DC62FC5
:102F8A00C72FD12F9C30FA008A30FB000A128A110F
:102F9A00A5270A168A11F12F2D307206031DD62F86
:102FAA00D72FE12FA530FA008A30FB000A128A11C6
:102FBA00A5270A168A11F12F3C307206031DE62F47
:102FCA00E72FF12F9F30FA008A30FB000A128A118C
:102FDA00A5270A168A11F12FD030FA008930FB0092
:102FEA000A128A11A5270A168A110A128A11382B7F
:062FFA000A128A11992F52
:04400E00D430FF3F6C
:00000001FF
