:020000040000FA
:060000000A128A110C280F
:10000800FE00030EF1000A08F2000A168A11A42D58
:100018000A128A110F28F601F701F801F901FA010D
:100028008313203084005C300A128A1594230A1244
:100038008A1183010A128A15C32C1F307802031C07
:100048002628272832282930780203182C282D281A
:1000580032280330DD005D08FA0091292930780242
:10006800031C3728382843283330780203183D28E2
:100078003E2843280430DD005D08FA00912933301A
:100088007802031C4828492854283D307802031870
:100098004E284F2854280530DD005D08FA009129C4
:1000A8003D307802031C59285A28652847307802C1
:1000B80003185F28602865280630DD005D08FA000F
:1000C800912947307802031C6A286B28762851301A
:1000D800780203187028712876280730DD005D083B
:1000E800FA00912951307802031C7B287C28872844
:1000F8005B30780203188128822887280830DD00C1
:100108005D08FA0091295B307802031C8C288D2841
:10011800982865307802031892289328982809307F
:10012800DD005D08FA00912965307802031C9D28DE
:100138009E28A9286F3078020318A328A428A92884
:100148000A30DD005D08FA0091296F307802031C3F
:10015800AE28AF28BA28793078020318B428B52811
:10016800BA280B30DD005D08FA0091297930780251
:10017800031CBF28C028CB28833078020318C52861
:10018800C628CB280C30DD005D08FA0091298330A1
:100198007802031CD028D128DC288D307802031877
:1001A800D628D728DC280D30DD005D08FA00912913
:1001B8008D307802031CE128E228ED289730780278
:1001C8000318E728E828ED280E30DD005D08FA005E
:1001D800912997307802031CF228F328FE28A130D1
:1001E80078020318F828F928FE280F30DD005D088A
:1001F800FA009129A1307802031C032904290F2948
:10020800AB307802031809290A290F291030DD00BC
:100218005D08FA009129AB307802031C14291529CE
:100228002029B530780203181A291B2920291130F2
:10023800DD005D08FA009129B5307802031C2529F4
:1002480026293129BF30780203182B292C29312976
:100258001230DD005D08FA009129BF307802031CD6
:10026800362937294229C930780203183C293D2903
:1002780042291330DD005D08FA009129C93078025F
:10028800031C472948295329D330780203184D29DC
:100298004E2953291430DD005D08FA009129D33026
:1002A8007802031C582959296429DD30780203187B
:1002B8005E295F2964291530DD005D08FA0091295F
:1002C800DD307802031C69296A297529E73078022C
:1002D80003186F29702975291630DD005D08FA00AA
:1002E8009129E7307802031C7A297B298629F13085
:1002F800780203188029812986291730DD005D08D6
:10030800FA009129F1307802031C8B298C29912954
:100318001830DD005D08FA0091291F08C339183824
:100328009F000F3083120313DD00DD0B99299C29F0
:10033800831203139F145A03031DA329A429EF2929
:10034800C730F4008A30F5000A168A11EC240A1224
:100358008A110530F4008B30F5000A168A11EC2456
:100368000A128A112330F4008B30F5000A168A111C
:10037800EC240A128A11E630F4008A30F5000A16D5
:100388008A11EC240A128A11BB30F4008930F50076
:100398000A168A11EC240A128A114730F4008A30AE
:1003A800F5000A168A11EC240A128A119730F40013
:1003B8008930F5000A168A11EC240A128A113430A1
:1003C800F4008830F5000A168A11EC240A128A1102
:1003D80083120313DA018C1EF229F329042F0A125F
:1003E8008A11FC270A128A1183120313DD005D08A3
:1003F800DB00DA01DA0A042F6530F4008B30F500EF
:100408000A168A11EC240A128A118312031353085C
:100418000A128A153B260A128A117930F4008B30A9
:10042800F5000A168A11EC240A128A118130F400A8
:100438008B30F5000A168A11EC240A128A118312ED
:1004480003134A080A168A1149250A128A118930A3
:10045800F4008A30F5000A168A11EC240A128A116F
:100468006530F4008B30F5000A168A11EC240A1264
:100478008A118312031352080A128A153B260A129C
:100488008A117930F4008B30F5000A168A11EC24B1
:100498000A128A118130F4008B30F5000A168A118D
:1004A800EC240A128A118312031349080A168A11C6
:1004B80049250A128A11A830F4008A30F5000A1674
:1004C8008A11EC240A128A116530F4008B30F50089
:1004D8000A168A11EC240A128A118312031351088E
:1004E8000A128A153B260A128A117930F4008B30D9
:1004F800F5000A168A11EC240A128A118130F400D8
:100508008B30F5000A168A11EC240A128A1183121C
:10051800031348080A168A1149250A128A116930F4
:10052800F4008A30F5000A168A11EC240A128A119E
:1005380083120313DA01DA0A232F6530F4008B30B3
:10054800F5000A168A11EC240A128A118312031381
:1005580050080A128A153B260A128A117930F400CB
:100568008B30F5000A168A11EC240A128A118130A0
:10057800F4008B30F5000A168A11EC240A128A114D
:100588008312031347080A168A1149250A128A1189
:100598008930F4008A30F5000A168A11EC240A1210
:1005A8008A116530F4008B30F5000A168A11EC24A4
:1005B8000A128A11831203134F080A128A153B265E
:1005C8000A128A117930F4008B30F5000A168A1164
:1005D800EC240A128A118130F4008B30F5000A16D7
:1005E8008A11EC240A128A118312031346080A1688
:1005F8008A1149250A128A11A830F4008A30F500B8
:100608000A168A11EC240A128A116530F4008B301C
:10061800F5000A168A11EC240A128A1183120313B0
:100628004E080A128A153B260A128A117930F400FC
:100638008B30F5000A168A11EC240A128A118130CF
:10064800F4008B30F5000A168A11EC240A128A117C
:100658008312031345080A168A1149250A128A11BA
:100668006930F4008A30F5000A168A11EC240A125F
:100678008A119C2A6530F4008B30F5000A168A111D
:10068800EC240A128A11831203134D080A128A15E0
:100698003B260A128A117930F4008B30F5000A16CD
:1006A8008A11EC240A128A118130F4008B30F5008B
:1006B8000A168A11EC240A128A11831203134408B9
:1006C8000A168A1149250A128A118930F4008A30DB
:1006D800F5000A168A11EC240A128A116530F40012
:1006E8008B30F5000A168A11EC240A128A1183123B
:1006F80003134C080A128A153B260A128A1179300C
:10070800F4008B30F5000A168A11EC240A128A11BB
:100718008130F4008B30F5000A168A11EC240A1295
:100728008A118312031343080A168A1149250A12EB
:100738008A11A830F4008A30F5000A168A11EC24D0
:100748000A128A116530F4008B30F5000A168A11F6
:10075800EC240A128A11831203134B080A128A1511
:100768003B260A128A117930F4008B30F5000A16FC
:100778008A11EC240A128A118130F4008B30F500BA
:100788000A168A11EC240A128A11831203134208EA
:100798000A168A1149250A128A116930F4008A302A
:1007A800F5000A168A11EC240A128A119C2A4C3088
:1007B800F4008930F5000A168A11EC240A128A110D
:1007C8000030F4008830F5000A168A11EC240A1269
:1007D8008A11C530F4008830F5000A168A11EC2415
:1007E8000A128A119530F4008830F5000A168A1129
:1007F800EC240A128A11831203138C1E042C052C74
:10080800FF2B6230F4008B30F5000A168A11EC24B5
:100818000A128A110A128A11FC270A128A118312F3
:100828000313DD005D08F7006230F4008B30F5003B
:100838000A168A11EC240A128A1183120313560825
:10084800DD005D08F30077080A168A1125260A12CA
:100858008A1183120313DE005E08D600F530F40017
:100868008830F5000A168A11EC240A128A117330AE
:10087800F4008930F5000A168A11EC240A128A114C
:10088800831203138C1E492C4A2C442C6230F4002A
:100898008B30F5000A168A11EC240A128A110A1202
:1008A8008A11FC270A128A1183120313DD005D08DE
:1008B800F7006230F4008B30F5000A168A11EC2438
:1008C8000A128A11831203135908DD005D08F30028
:1008D80077080A168A1112250A128A11831203133D
:1008E800DE005E08D9002130F4008930F5000A16D0
:1008F8008A11EC240A128A116530F4008830F50058
:100908000A168A11EC240A128A114030F4008B303E
:10091800F5000A168A11EC240A128A1183120313AD
:100928008C1E972C982C922C0A128A11FC270A12DA
:100938008A1183120313DD005D08F7003130770652
:10094800031DA72CA82CB12C5608DD005D08D30088
:100958005908DD005D08CA009C2A32307706031D5D
:10096800B62CB72CC02C5608DD005D08D2005908FB
:10097800DD005D08C9009C2A33307706031DC52CAD
:10098800C62C9C2A5608DD005D08D1005908DD00F8
:100998005D08C8009C2A4C30F4008930F5000A161E
:1009A8008A11EC240A128A110030F4008830F5000C
:1009B8000A168A11EC240A128A11C530F40088300C
:1009C800F5000A168A11EC240A128A119530F400EF
:1009D8008830F5000A168A11EC240A128A1183124B
:1009E80003138C1EF82CF92CF32C6230F4008B3096
:1009F800F5000A168A11EC240A128A110A128A11C1
:100A0800FC270A128A1183120313DD005D08F70020
:100A18006230F4008B30F5000A168A11EC240A12B1
:100A28008A11831203135508DD005D08F300770867
:100A38000A168A1125260A128A1183120313DE0068
:100A48005E08D500F530F4008830F5000A168A11E2
:100A5800EC240A128A117330F4008930F5000A1662
:100A68008A11EC240A128A11831203138C1E3D2D5D
:100A78003E2D382D6230F4008B30F5000A168A11AD
:100A8800EC240A128A110A128A11FC270A128A1106
:100A980083120313DD005D08F7006230F4008B3029
:100AA800F5000A168A11EC240A128A11831203131C
:100AB8005808DD005D08F30077080A168A11122528
:100AC8000A128A1183120313DE005E08D80021304F
:100AD800F4008930F5000A168A11EC240A128A11EA
:100AE8006530F4008830F5000A168A11EC240A12E1
:100AF8008A114030F4008B30F5000A168A11EC2474
:100B08000A128A11831203138C1E8B2D8C2D862DAD
:100B18000A128A11FC270A128A1183120313DD00B4
:100B28005D08F70031307706031D9B2D9C2DA52D00
:100B38005508DD005D08D0005808DD005D08C700D5
:100B48009C2A32307706031DAA2DAB2DB42D5508EB
:100B5800DD005D08CF005808DD005D08C6009C2A4E
:100B680033307706031DB92DBA2D9C2A5508DD00B0
:100B78005D08CE005808DD005D08C5009C2A4C3091
:100B8800F4008930F5000A168A11EC240A128A1139
:100B98000030F4008830F5000A168A11EC240A1295
:100BA8008A11C530F4008830F5000A168A11EC2441
:100BB8000A128A119530F4008830F5000A168A1155
:100BC800EC240A128A11831203138C1EEC2DED2DCE
:100BD800E72D6230F4008B30F5000A168A11EC24F8
:100BE8000A128A110A128A11FC270A128A11831220
:100BF8000313DD005D08F7006230F4008B30F50068
:100C08000A168A11EC240A128A1183120313540853
:100C1800DD005D08F30077080A168A1125260A12F6
:100C28008A1183120313DE005E08D400F530F40045
:100C38008830F5000A168A11EC240A128A117330DA
:100C4800F4008930F5000A168A11EC240A128A1178
:100C5800831203138C1E312E322E2C2E6230F40098
:100C68008B30F5000A168A11EC240A128A110A122E
:100C78008A11FC270A128A1183120313DD005D080A
:100C8800F7006230F4008B30F5000A168A11EC2464
:100C98000A128A11831203135708DD005D08F30056
:100CA80077080A168A1112250A128A118312031369
:100CB800DE005E08D7002130F4008930F5000A16FE
:100CC8008A11EC240A128A116530F4008830F50084
:100CD8000A168A11EC240A128A114030F4008B306B
:100CE800F5000A168A11EC240A128A1183120313DA
:100CF8008C1E7F2E802E7A2E0A128A11FC270A1249
:100D08008A1183120313DD005D08F700313077067E
:100D1800031D8F2E902E992E5408DD005D08CD00FE
:100D28005708DD005D08C4009C2A32307706031D91
:100D38009E2E9F2EA82E5408DD005D08CC00570873
:100D4800DD005D08C3009C2A33307706031DAD2EF5
:100D5800AE2E9C2A5408DD005D08CB005708DD0044
:100D68005D08C2009C2ADE30F4008930F5000A16BE
:100D78008A11EC240A128A1176080A128A153B266F
:100D88000A128A117030F4008B30F5000A168A11A5
:100D9800EC240A128A110130F4008A30F5000A1690
:100DA8008A11EC240A128A118312031321080A12E9
:100DB8008A153B260A128A117030F4008B30F50030
:100DC8000A168A11EC240A128A112430F4008A3097
:100DD800F5000A168A11EC240A128A1183120313E9
:100DE80020080A128A153B260A128A115A30F40082
:100DF8008B30F5000A168A11EC240A128A11232F67
:100E08005B08DD00DE015E08003A03190C2F232F72
:100E18005D08313A0319002A033A0319A12A013A55
:100E280003193E2B073A0319DB2B013A0319CF2C80
:100E3800033A0319C32D013A0319B72E232F303073
:100E480083120313DD005D08DB00861B2C2F2D2F7A
:100E58003E2F861D302F312F3E2F061A342F352F67
:100E68003E2F7908DD005D08C2007A08DD005D08C4
:100E7800CB00672F861B412F422F532F8619452FF2
:100E8800462F532F061E492F4A2F532F7908DD006E
:100E98005D08C3007A08DD005D08CC00672F861B5B
:100EA800562F572F672F86195A2F5B2F672F061A31
:100EB8005E2F5F2F672F7908DD005D08C4007A0870
:100EC800DD005D08CD00061B6A2F6B2F7C2F861D69
:100ED8006E2F6F2F7C2F061A722F732F7C2F790895
:100EE800DD005D08C5007A08DD005D08CE00A52F8D
:100EF800061B7F2F802F912F8619832F842F912FE8
:100F0800061E872F882F912F7908DD005D08C600FF
:100F18007A08DD005D08CF00A52F061B942F952FBA
:100F2800A52F8619982F992FA52F061A9C2F9D2F2C
:100F3800A52F7908DD005D08C7007A08DD005D0887
:100F4800D000861AA82FA92FBA2F8619AC2FAD2F3B
:100F5800BA2F061EB02FB12FBA2F7908DD005D0811
:100F6800C8007A08DD005D08D100E42F861ABD2F7D
:100F7800BE2FCF2F861DC12FC22FCF2F061AC52FE8
:100F8800C62FCF2F7908DD005D08C9007A08DD007B
:100F98005D08D200E42F861AD22FD32FE42F8619AA
:100FA800D62FD72FE42F061ADA2FDB2FE42F790854
:100FB800DD005D08CA007A08DD005D08D300E42F73
:100FC8000A128A15712D0A128A110C28FF1BF42F98
:100FD80083137F1883170008840A0319FF0A08007F
:100FE8007F087F398A000408840A0319FF0A8200EF
:100FF800831203131A080800203461342E34303465
:101008002034203462342E343134203420342034D7
:1010180063342E34323420342034203464342E3473
:10102800333420342034203465342E34343420349E
:101038002034203466342E3435342034203420349F
:1010480067342E34363420342034203468342E3437
:1010580037342034203469342E3438340D34003495
:101068003734293420344D346F3473347434723443
:10107800613472342034633461346E3474346934C6
:1010880064346134643420346434653420346D3419
:10109800653464346934633461346D3465346E3472
:1010A80074346F3420346434693473347034653480
:1010B8006E347334613464346F3420340D340D3439
:1010C80000342034703472346534733469346F34C6
:1010D8006E346534203465346C3420346E34C33453
:1010E800BA346D34653472346F3420346434653402
:1010F80020346D34653464346934633461346D3458
:1011080065346E3474346F34203461342034673479
:1011180075346134723464346134723420340D347B
:10112800003472342E34313437342034203473345C
:101138002E34313438342034203474342E3431345D
:1011480039342034203475342E3432343034203459
:10115800203476342E343234313420342034773409
:101168002E34323432342034203478342E3432342D
:1011780033342034203479342E34323434340D343A
:10118800003420346A342E343934203420346B341B
:101198002E3431343034203420346C342E3431340D
:1011A8003134203420346D342E3431343234203408
:1011B80020346E342E3431343334203420346F34B8
:1011C8002E34313434342034203470342E343134D5
:1011D80035342034203471342E34313436340D34DF
:1011E8000034203449346E346734723465347334CF
:1011F800C334A13420346C34613420346C34653405
:1012080074347234613420346434653420346C347A
:101218006F34733420346D3469346E3475347434F7
:101228006F34733420346E347534653476346F34E7
:101238007334203420340D34003420344134633482
:101248007434753461346C346D3465346E3474348C
:10125800653420347334653420346334753465342C
:101268006E3474346134203463346F346E34203413
:10127800333420346D346534643469346334613410
:101288006D3465346E3474346F3473340D34003413
:10129800203449346E346734723465347334C3345B
:1012A800A13420346C34613420346C3465347434A3
:1012B8007234613420346434653420346C346134DD
:1012C80020346E34753465347634613420346834AF
:1012D8006F3472346134203420340D3400342034B7
:1012E80061342E3430342034203462342E34313496
:1012F800353420342034203463342E3433343034BD
:1013080020342034203464342E34343435342034BA
:101318002034203465342E343534353420342034A8
:1013280020340D3400343634293420344D346F34AD
:101338006434693466346934633461347234203413
:1013480068346F3472346134723469346F342034E1
:101358007534733475346134723469346F342034BD
:10136800743472346534733420340D3400343434B6
:10137800293420344D346F34643469346634693424
:10138800633461347234203468346F3472346134B5
:10139800723469346F34203475347334753461347D
:1013A800723469346F34203475346E346F342034B9
:1013B8000D34003445346C3420346D346534643471
:1013C8006934633461346D3465346E3474346F3425
:1013D8002034313420347334653420346834613433
:1013E8002034643469347334703465346E3473343F
:1013F800613464346F342034003445346C34203420
:101408006D34653464346934633461346D346534FF
:101418006E3474346F342034323420347334653489
:10142800203468346134203464346934733470345B
:1014380065346E347334613464346F34203400346A
:1014480045346C3420346D34653464346934633421
:1014580061346D3465346E3474346F34203433340D
:10146800203473346534203468346134203464346F
:1014780069347334703465346E347334613464346D
:101488006F34203400343534293420344D346F34EB
:1014980064346934663469346334613472342034B2
:1014A80068346F3472346134723469346F34203480
:1014B8007534733475346134723469346F3420345C
:1014C80064346F3473340D34003420346D3469342B
:1014D8006E3473342E342034703461347234613491
:1014E800203465346C3420346D34653464346934A4
:1014F800633461346D3465346E3474346F3420343D
:10150800333420340D340D34003420346D346934D0
:101518006E3473342E342034703461347234613450
:10152800203465346C3420346D3465346434693463
:10153800633461346D3465346E3474346F342034FC
:10154800313420340D34003420346D3469346E3431
:1015580073342E342034703461347234613420345E
:1015680065346C3420346D346534643469346334E0
:1015780061346D3465346E3474346F3420343234ED
:1015880020340D3400340D3420345134753465342E
:10159800203461346334633469346F346E342034F6
:1015A80064346534733465346134203465346A34A2
:1015B8006534633475347434613472343F342034A0
:1015C8000D3400343334293420347634653472349D
:1015D80020346434613474346F34733420346434A4
:1015E8006534203475347334753461347234693435
:1015F8006F342034743472346534733420340D34C9
:10160800003431342934203476346534723420344B
:101618006434613474346F3473342034643465341E
:1016280020347534733475346134723469346F34EA
:10163800203475346E346F3420340D340034323431
:101648002934203476346534723420346434613477
:1016580074346F347334203464346534203475340E
:10166800733475346134723469346F3420346434BB
:101678006F3473340D340034203431342E34413413
:1016880046344334203420342034203432342E3449
:1016980046344634543420342034203433342E3401
:1016A800443448344C3420340D34003420347634F7
:1016B800653463346534733420340D3420340D3488
:1016C80000342034453473347034653472346134F2
:1016D8007234203420340034203476346534633452
:1016E8006534733420340D340034203448346F3476
:1016F80072346134733420340034203463346F34EA
:101708006E342034203400343334303400343134EF
:101718003534003434343534003435343534003419
:1017280064008001840A0406031900340406952B1A
:10173800F4007408831203178D00831603178C13A3
:101748000C14831203170D08F3007308F5007508CD
:1017580008000815C73083120313DD00B32BDD0B17
:10176800B22BB62B8312031308114A3081000B11D8
:101778000B11061CC02BC12BD42B2708031DC52B0E
:10178800C62BD42B0130DD005D08F6071030DD00D4
:101798005D08F30076080A168A11CF240A128A1502
:1017A80000308312031306180130A700861CDD2BB6
:1017B800DE2BF12B2608031DE22BE32BF12B013046
:1017C800DD005D08A1071130DD005D08F300210888
:1017D8000A168A11CF240A128A15003083120313BD
:1017E80086180130A600061DFA2BFB2B0E2C2508A7
:1017F800031DFF2B002C0E2C0130DD005D08A00717
:101808001230DD005D08F30020080A168A11CF2483
:101818000A128A1500308312031306190130A50035
:10182800851B172C182C2A2CB101AE01AB01B00175
:10183800AD01AA01AF01AC01A901BA01B701B40118
:10184800B901B601B301B801B501B2019F182D2C39
:10185800302C0A128A119F291F0CDD005D0C0F39EC
:10186800063A031D382C392C882C1E08DD005D082B
:10187800F8002B3078020318422C432C452CF90130
:10188800832C2B307802031C4A2C4B2C562C5530B9
:1018980078020318502C512C562C0F30DD005D08AF
:1018A800F900832C55307802031C5B2C5C2C672CC8
:1018B8007F3078020318612C622C672C1E30DD0003
:1018C8005D08F900832C7F307802031C6C2C6D2C8A
:1018D800782CA93078020318722C732C782C2D30B0
:1018E800DD005D08F900832CD2307802031C7D2CC2
:1018F8007E2C832C3730DD005D08F900832C1F080F
:10190800C33914389F00902C1F0CDD005D0C0F3973
:10191800053A031D902C932C0A128A1195291E084A
:10192800DD005D08F8000B30780203189C2C9D2C14
:10193800A12CFA010A128A1191290B307802031C92
:10194800A62CA72CB02C153078020318AC2CAD2C83
:10195800B02CFA01FA0A9E2C15307802031CB52C1B
:10196800B82C0A128A1121281F3078020318BD2CBE
:10197800BE2CB52C0230DD005D08FA009E2C6030CC
:1019880083160317880089018030831603138500A6
:10199800FF3086008801033089009F131F129F12B1
:1019A800831203131F179F131F08C33914389F008E
:1019B800203083120313DD00DD0BE02C00008312BE
:1019C80003131F1483160313811315149514151587
:1019D8009516151795170F088F3960388F000F1453
:1019E80081128111073081044E3083120313810064
:1019F8009016101690151015901010148F018E0166
:101A080083160313181218158316031787156730E2
:101A18008316031399009A01831203139817181356
:101A280018168316031398168B178B120B11831233
:101A380003130C10831603130C140B1783120313D0
:101A48009F1410300A128A159C230A128A158312D1
:101A58000313DD005D08F60010307606031D352DF2
:101A6800362D372DF60111300A128A159C230A12D9
:101A78008A1583120313DD005D08A10011302106C9
:101A8800031D472D482D492DA10112300A128A1530
:101A98009C230A128A1583120313DD005D08A00037
:101AA80012302006031D592D5A2D5B2DA0018501EA
:101AB8008601870188018901BD01BC01BB01A7011D
:101AC800A70AA601A60AA501A50AA401A40AA301BA
:101AD800A30AA201A20ADA01DA0A28080319752D55
:101AE800782D0A168A11872F3A085306031D7D2D73
:101AF8007E2D9D2D31084A06031D832D842D9D2D95
:101B08003D08031D882D892D972D0130DD005D08C6
:101B1800F6071030DD005D08F30076080A168A1112
:101B2800CF240A128A1583120313BD01BD0ABA0114
:101B3800B10137085006031DA22DA32DC22D2E0872
:101B48004706031DA82DA92DC22D3D08031DAD2D47
:101B5800AE2DBC2D0130DD005D08F6071030DD002C
:101B68005D08F30076080A168A11CF240A128A152E
:101B780083120313BD01BD0AB701AE0134084D0637
:101B8800031DC72DC82DE72D2B084406031DCD2D99
:101B9800CE2DE72D3D08031DD22DD32DE12D01308B
:101BA800DD005D08F6071030DD005D08F3007608FB
:101BB8000A168A11CF240A128A1583120313BD014B
:101BC800BD0AB401AB0139085206031DEC2DED2DF9
:101BD8000C2E30084906031DF22DF32D0C2E3C085F
:101BE800031DF72DF82D062E0130DD005D08A10735
:101BF8001130DD005D08F30021080A168A11CF2490
:101C08000A128A1583120313BC01BC0AB901B00178
:101C180036084F06031D112E122E312E2D084606AA
:101C2800031D172E182E312E3C08031D1C2E1D2EA9
:101C38002B2E0130DD005D08A1071130DD005D08A5
:101C4800F30021080A168A11CF240A128A15831272
:101C58000313BC01BC0AB601AD0133084C06031DD1
:101C6800382E0A168A11F82E0A168A11172FF5002F
:101C7800AA2F83160313981C422E432E3D2E303074
:101C8800831203139900FF2F83160313981C4D2EFC
:101C98004E2E482E3130831203139900FF2F8316DE
:101CA8000313981C582E592E532E323083120313C7
:101CB8009900FF2F83160313981C632E642E5E2E43
:101CC8003330831203139900FF2F83160313981CD4
:101CD8006E2E6F2E692E3430831203139900FF2F56
:101CE80083160313981C792E7A2E742E353083129E
:101CF80003139900FF2F83160313981C842E852E37
:101D08007F2E3630831203139900FF2F8316031397
:101D1800981C8F2E902E8A2E373083120313990029
:101D2800FF2F83160313981C9A2E9B2E952E38305E
:101D3800831203139900FF2F83160313981CA52EF3
:101D4800A62EA02E3930831203139900FF2F831675
:101D58000313981CB02EB12EAB2E3130831203130F
:101D6800990083160313981CBA2EBB2EB52E432E4A
:101D780083160313981CC12EC22EBC2E3130831239
:101D88000313990083160313981CCB2ECC2EC62E52
:101D98004E2E83160313981CD22ED32ECD2E3130FF
:101DA80083120313990083160313981CDC2EDD2E6F
:101DB800D72E592E83160313981CE32EE42EDE2EFD
:101DC800313083120313990083160313981CED2EE8
:101DD800EE2EE82E642E83160313981CF42EF52E8F
:101DE800EF2E313083120313990083160313981CC6
:101DF800FE2EFF2EF92E6F2E83160313981C052F27
:101E0800062F002F31308312031399008316031312
:101E1800981C0F2F102F0A2F7A2E83160313981C45
:101E2800162F172F112F31308312031399008316A1
:101E38000313981C202F212F1B2F852E8316031385
:101E4800981C272F282F222F313083120313990033
:101E580083160313981C312F322F2C2F902E8316A4
:101E68000313981C382F392F332F31308312031363
:101E7800990083160313981C422F432F3D2F9B2E46
:101E880083160313981C492F4A2F442F313083128D
:101E98000313990083160313981C532F542F4E2FA6
:101EA800A62E83160313981C5A2F5B2F552F3230FA
:101EB80083120313990083160313981C642F652F4C
:101EC8005F2F432E83160313981C6B2F6C2F662FDE
:101ED800323083120313990083160313981C752F4D
:101EE800762F702F4E2E83160313981C7C2F7D2F70
:101EF800772F323083120313990083160313981C2B
:101F0800862F872F812F592E83160313981C8D2F08
:101F18008E2F882F323083120313990083160313F0
:101F2800981C972F982F922F642E83160313981CB2
:101F38009E2F9F2F992F32308312031399008316F7
:101F48000313981CA82FA92FA32F6F2E7508F30031
:101F5800F4017408003A0319B22FFF2F7308003AEE
:101F680003193D2E013A0319482E033A0319532E3B
:101F7800013A03195E2E073A0319692E013A03192B
:101F8800742E033A03197F2E013A03198A2E0F3A49
:101F98000319952E013A0319A02E033A0319AB2E03
:101FA800013A0319BC2E073A0319CD2E013A031939
:101FB800DE2E033A0319EF2E013A0319002F1F3AB8
:101FC8000319112F013A0319222F033A0319332F4A
:101FD800013A0319442F073A0319552F013A0319F7
:101FE800662F033A0319772F013A0319882F0F3AFE
:081FF8000319992FFF2F0800C7
:10298600F30083160313981CC92CCA2CC42C730895
:102996008312031399000800F400730883120317C7
:1029A6008D0074088C00831603178C130C158B137B
:1029B60055308D00AA308D008C14831203130D1E22
:1029C600E52CE62CE02C0D12831603170C118B1741
:1029D6000800012D7508FF00740884000A128A1188
:1029E600EA270A168A110A168A11C3240A168A11B8
:1029F6000130F4070318F50A0030F507750883124D
:102A06000313FF00740884000A128A11EA270A16C3
:102A16008A11003A031D102D112DED2C0800F5002A
:102A260061307506031D182D192D1B2DF301472D39
:102A360062307506031D202D212D262D0F30F40042
:102A46007408F300472D63307506031D2B2D2C2DBE
:102A5600312D1E30F4007408F300472D64307506DE
:102A6600031D362D372D3C2D2D30F4007408F30050
:102A7600472D65307506031D412D422D472D3730F4
:102A8600F4007408F300472D73080800831203133B
:102A9600DC0083160313981C512D522D4C2D8312E6
:102AA60003135C08031D582D592D632D8930F4003E
:102AB6008B30F5000A168A11EC240A168A11A32D0A
:102AC6000F305C06031D682D692D732D8B30F400C5
:102AD6008B30F5000A168A11EC240A168A11A32DEA
:102AE6001E305C06031D782D792D832D8830F40069
:102AF6008B30F5000A168A11EC240A168A11A32DCA
:102B06002D305C06031D882D892D932D8E30F40003
:102B16008B30F5000A168A11EC240A168A11A32DA9
:102B260037305C06031D982D992DA32D9130F400A6
:102B36008B30F5000A168A11EC240A168A11A32D89
:102B46000800831203130C1CA92DAA2D1E2E01307A
:102B5600F0007008C1070130F0007008C0070230AD
:102B66004106031DB72DB82DE22D0130F000700887
:102B7600B1070130F0007008AE070130F0007008B0
:102B8600AB070130F0007008B0070130F0007008A4
:102B9600AD070130F0007008AA070130F000700898
:102BA600AF070130F0007008AC070130F000700884
:102BB600A907C101BD01BC01BB01A801A80A783063
:102BC6004006031DE72DE82D162E0130F000700893
:102BD600BA070130F0007008B7070130F00070083E
:102BE600B4070130F0007008B9070130F000700832
:102BF600B6070130F0007008B3070130F000700826
:102C0600B8070130F0007008B5070130F000700811
:102C1600B207B101AE01AB01B001AD01AA01AF012E
:102C2600AC01A901C0010C10831603130C14831206
:102C360003138F018E0172088A00710E8300FE0E47
:102C46007E0E090083120313DC00A12EF301F62E7B
:102C5600F301F30AF62E0230F4007408F300F62EA0
:102C66000330F4007408F300F62E0430F400740800
:102C7600F300F62E0530F4007408F300F62E063045
:102C8600F4007408F300F62E0730F4007408F3001D
:102C9600F62E0830F4007408F300F62E0930F4001E
:102CA6007408F300F62E0A30F4007408F300F62ECA
:102CB6000B30F4007408F300F62E0C30F4007408A0
:102CC600F300F62E0D30F4007408F300F62E0E30E5
:102CD600F4007408F300F62E0F30F4007408F300C5
:102CE600F62E1030F4007408F300F62E1130F400BE
:102CF6007408F300F62E1230F4007408F300F62E72
:102D06001330F4007408F300F62E1430F40074083F
:102D1600F300F62E1530F4007408F300F62E163084
:102D2600F4007408F300F62E1730F4007408F3006C
:102D3600F62E1830F4007408F300F62E5C08F40042
:102D4600F5017508003A0319A92EF62E7408613AA2
:102D56000319292E033A03192B2E013A03192E2E95
:102D6600073A0319332E013A0319382E033A031989
:102D76003D2E013A0319422E0F3A0319472E013A06
:102D860003194C2E033A0319512E013A0319562EF4
:102D9600073A03195B2E013A0319602E033A031909
:102DA600652E013A03196A2E1F3A03196F2E013A4E
:102DB6000319742E033A0319792E013A03197E2E4C
:102DC600073A0319832E013A0319882E033A031989
:102DD6008D2E013A0319922E0F3A0319972E013AB6
:102DE60003199C2EF62E730808002A084306031DB5
:102DF600FD2EFE2E172F3C08031D022F032F112F29
:102E06000130DD005D08A1071130DD005D08F3002B
:102E160021080A168A11CF240A168A11831203136F
:102E2600BC01BC0AB301AA0138085106031D1C2FB8
:102E36001D2F3C2F2F084806031D222F232F3C2F22
:102E46003B08031D272F282F362F0130DD005D0894
:102E5600A0071230DD005D08F30020080A168A116B
:102E6600CF240A168A1183120313BB01BB0AB801C9
:102E7600AF0135084E06031D412F422F612F2C0846
:102E86004506031D472F482F612F3B08031D4C2F76
:102E96004D2F5B2F0130DD005D08A0071230DD00ED
:102EA6005D08F30020080A168A11CF240A168A1133
:102EB60083120313BB01BB0AB501AC0132084B06F2
:102EC600031D662F672F862F29084206031D6C2FC8
:102ED6006D2F862F3B08031D712F722F802F013017
:102EE600DD005D08A0071230DD005D08F300200854
:102EF6000A168A11CF240A168A1183120313BB01FC
:102F0600BB0AB201A901A8010B1D8A2F8D2F0A1237
:102F16008A15BD2B061C902F912F962F3D0803195D
:102F2600952F962FA82F0814033083120313DE0063
:102F36009730DD00DD0B9D2FDE0B9D2F83120313D3
:102F46000810463081000B11B72F0814C7308312C2
:102F56000313DD00AE2FDD0BAD2FB12F831203134C
:102F660008104A3081000B11861CBA2FBB2FC02FC8
:102F76003C080319BF2FC02FD22F881403308312A9
:102F86000313DE009730DD00DD0BC72FDE0BC72FE6
:102F9600831203138810463081000B11E12F881429
:102FA600C73083120313DD00D82FDD0BD72FDB2F9D
:102FB6008312031388104A3081000B11061DE42F7B
:102FC600E52FEC2F3B080319E92FEC2F0A128A157F
:102FD600AD2B0815033083120313DE009730DD0096
:102FE600DD0BF32FDE0BF32F83120313081146308C
:0A2FF60081000B110A128A15BC2B92
:04400E00D420FF3F7C
:00000001FF
