:020000040000FA
:060000000A128A11122809
:10000800FE00030EF1000408F2000A08F300831250
:1000180003137F08F4000A128A1119290A128A1197
:100028001528F90183010A128A111A288316031761
:10003800880189018316031385010330860087012F
:1000480088018113151495140F178F160F160F14A6
:100058008112811101158110011464308312031378
:10006800810083160313161496140B108B178B1626
:100078000B118B150B108312031385018601870161
:100088008801F801F701B3010330AF002F08F5002C
:100098000508AF002F08F6006430A6000030A7005E
:1000A8007608AF00B0012F08A8003008A9000A128E
:1000B8008A11B0200A128A11831203132608B1008C
:1000C8003108F8000A30A6000030A7007808AF0011
:1000D800B0012F08A0003008A1009C30A200FF301A
:1000E800A3000A128A1182210A128A117608831241
:1000F80003132007A80021080318210AA9000A12DF
:100108008A11B0200A128A11831203132608B1003B
:100118003108F7009C30AF002F08A00078080A12B9
:100128008A11A9210A128A1183120313B000F6302A
:10013800B1003108A00077080A128A11A9210A1211
:100148008A118312031330077607B2003208B3000E
:100158004C280A128A11122883120313AC01A71F14
:10016800B628B728BE28A609A709A60A0319A70A08
:10017800AC01AC0AA91FC128C228CB28A809A90923
:10018800A80A0319A90A0130AA002A08AC06AD0179
:10019800AE01260827040319D228D3280A29AB015F
:1001A800AB0AE12801300310A60DA70DFF3E031D81
:1001B800D7280130AA002A08AB07A71FE428E5289A
:1001C800D62801300310AD0DAE0DFF3E031DE62805
:1001D80027082902031DF22826082802031CF528EF
:1001E800F628FD282608A8022708031CA903A90247
:1001F8002D1401300310A70CA60CFF3E031DFE288A
:100208000130AB02031D09290A29E5282C08031926
:100218000E290F291429AD09AE09AD0A0319AE0A32
:100228002E08A7002D08A60008000B1D1C291D2953
:1002380062290130F00070088807860103307506CE
:10024800031D2729282933297808013E84000A122A
:100258008A11C0210A128A11870086165329023092
:100268007506031D3829392944297708013E840079
:100278000A128A11C0210A128A1187000617532907
:100288007503031D4829492953293308013E840071
:100298000A128A11C0210A128A11870086170130B2
:1002A800F5027508031D59295A295E290330F00003
:1002B8007008F5000B116430810077290B1C652943
:1002C80066297729061869296A2970290130F000FA
:1002D800700885070B1077298618732974297729E0
:1002E800013085026E297408FF0073088A007208BD
:1002F8008400710E8300FE0E7E0E09008312031324
:10030800A401A501201C89298A2990292208A4076B
:100318000318A50A2308A50701300310A20DA30D91
:10032800FF3E031D912901300310A10CA00CFF3ED4
:10033800031D982920082104031DA329A42986291F
:100348002508A1002408A000080083120313A300B5
:10035800A201231CB029B129B5292008A100210830
:10036800A2070310A00D0310A30C2308031DBD2929
:10037800BE29AD292208080001308A000408840A31
:1003880082070034FC346034DA34F2346634B6342C
:08039800BE34E034FE34F634FB
:04400E00D430FF3F6C
:00000001FF
