:060000000A128A11142906
:10000800F000030EF1000B1910200B183220710EAE
:100018008300F00E700E0900031383123D30810037
:100028000B11850125181C282808870005162C287F
:100038002908870085152C282A0887000514080038
:100048002B088700851408002C08870005152C2824
:10005800A50A063025020319A50108000313831217
:0C006800061C880A861C88030B10080088
:100200008A010A148F058207FC346034DA34F23430
:100210006634B634BE34E034FE34F634EE343E3464
:100220009C347A349E348E340317831688018901F6
:100230000313831685018701880106148614811330
:1002400015149514031383160F178F160F120F141E
:100250003D214A215321031383128501870188011F
:100260000808A400592160210808A3007021200873
:100270007A21210884212208302903138316811250
:100280008111011581140114031383123D30810083
:100290000B1108000313831616149614031383120C
:1002A00006080B1008008B178B160B118B150B1003
:1002B000080024080F39A600240E0F39A7000800F3
:1002C00026080021A80027080021A90020080021F5
:1002D000AA0021080021AB0022080021AC00080080
:1002E000A0016430A3020318A00A03187129643026
:1002F000A3070800A1010A30A3020318A10A0318EA
:100300007B290A30A3070800A2010130A3020318C9
:0C031000A20A031885290130A307080089
:04400E00D430FF3F6C
:00000001FF
