:060000000A128A1100291A
:1002000003178316880189010313831685010517D7
:100210008517870107168716071787170810031316
:100220008312850188018701031383160F138F162C
:100230000F160F142421031383120B193B21051BE6
:100240003321851B37211D29031383168112811148
:10025000011581140114031383122F2108000C309F
:1002600081000B110800051B3329850A0800851B36
:0C0270003729850308002F21870A0800A9
:04400E00D430FF3F6C
:00000001FF
