:060000000A128A11142906
:10000800F000030EF1000B1910200B181D20710EC3
:100018008300F00E700E0900031383123D30810037
:100028000B11A00A2008143C031D1C28A001F20A89
:10003800080003138312061C850A861C85030B100F
:020048000800AE
:100200008A010A148F058207FC346034DA34F23430
:100210006634B634BE34E034FE34F634EE343E3464
:100220009C347A349E348E340317831688018901F6
:1002300003138316061486148701880185010516A9
:100240008516051785178113151495140313831646
:100250000F178F160F120F143C214B21542103133B
:1002600083128501FC3087000030A000F2000508F1
:10027000002187005A213729031383168112811127
:1002800001158114011403138312031383123D30EB
:1002900081000B1108000313831616149614031320
:1002A000831206080B1008008B178B160B118B1589
:0C02B0000B1008007208002188000800F4
:04400E00D430FF3F6C
:00000001FF
