:060000000A128A11142906
:10000800F000030EF1000B190E20710E8300F00EA4
:10001800700E0900031383123C3081000B11A40AEF
:0E0028002408143C031D1928A401850A0800B1
:100200008A010A148F058207FC346034DA34F23430
:100210006634B634BE34E034FE34F634EE343E3464
:100220009C347A349E348E340317831688018901F6
:10023000031383168601061486148701880185013D
:100240000516851605178517031383128501860188
:10025000FC3087008800031383160F178F160F12C8
:100260000F1439214821031383120030A400000029
:10027000372903138316811281110115811401148A
:1002800003138312031383123C3081000B11080007
:100290008B178B160B11080083124F2108000C30AE
:1002A00081000B1103198701080006185529A00ABF
:1002B000200800218500080086185C29A00320087A
:1002C0000021850008004F21870A080008144F21EB
:0A02D000FD30A100A10B6A2908000F
:04400E00D430FF3F6C
:00000001FF
