:060000000A128A11142906
:10000800F000030EF1000B1912200C1842200B18F7
:100018005120710E8300F00E700E09000313831235
:10002800B43081000B1185012A1C2428AA1C292818
:100038002A1D2E28AA1D33282A1E3828AA1E3D2824
:100048002A142B08870085140800AA142C08870096
:10005800051408002A152D08870085150800AA151B
:100068002E088700051508002A162F088700851610
:100078000800AA0130088700051608000313831238
:10008800DC308E000B308F000C10A50A2508023CCE
:10009800031D5028A501A60A080003138312061C95
:1000A800A40A063024020319A403861CA30A061D09
:0600B800A3030B10080079
:100200008A010A148F058207FC346034DA34F23430
:100210006634B634BE34E034FE34F634EE343E3464
:100220009C347A349E348E340317831688018901F6
:100230000313831685018701880189018614061539
:1002400006148113951415151514031383160F172F
:100250008F160F120F140722262214221E220313B8
:1002600083128501870188018901A601A9010A304D
:10027000A000A100A2000130A400A30001302402CC
:100280000319532902302402031960290330240280
:10029000031965290430240203196A290530240250
:1002A00003196F293E29291C7821A91881212919B0
:1002B0008D21A9199621291AA221A91AAB213E291B
:1002C00026308800043089003E293430880004300C
:1002D00089003E2924308800063089003E293630C6
:1002E000880006308900861C3922061D3A223E29E4
:1002F0002130880004308900260820020319B72124
:1003000008002230880004308900033026020319D7
:100310008A210800A910291508000C308800043033
:100320008900260821020319CE2108001430880014
:10033000043089000330260203199F210800A91107
:10034000291608002430880001308900260822027E
:100350000319E521080024308800023089000330A9
:1003600026020319B4210800A91229100800081058
:10037000FC21FC210814FC21FC210810FC21FC219B
:100380000814FC21FC210810FC21FC210814FC218C
:10039000FC2108102914A914A60108008811FC21C9
:1003A000FC218815FC21FC218811FC21FC218815E9
:1003B000FC21FC218811FC21FC218815FC21FC2159
:1003C00088112911A915A60108000910FC21FC219A
:1003D0000914FC21FC210910FC21FC210914FC2139
:1003E000FC210910FC21FC210914FC21FC2109102D
:1003F0002912A916A6010800FF30A7000222A70BA8
:10040000FE290800FF30A800A80B042A08000313E7
:1004100083168112811101158114011003138312B7
:10042000B43081000B1108000313831696141615BF
:1004300016140313831206080B1008008B178B1673
:100440000B110C140C108B150B10080003138316E2
:100450000C140313831290109016101690111011A3
:10046000101403138312DC308E000B308F000C103D
:0A047000080008000130A400080095
:04400E00D430FF3F6C
:00000001FF
