:060000000A128A11132907
:10000800F000030EF1000B1912200C1850200B18E9
:100018006D20710E8300F00E700E09000313831219
:10002800E63081000B118501361C2828B61C2D28C6
:10003800361D3228B61D3728361E3C28B61E4128E4
:10004800361F4628B61F4B283614370887008514F4
:100058000800B61438088700051408003615390852
:10006800870085150800B6153A08870005150800A9
:1000780036163B08870085160800B6163C08870028
:100088000516080036173E08870085170800B601D0
:100098003D0887000517080003138312DC308E0023
:1000A8000B308F000C10A80A2808023C031D6A2890
:1000B800A801A90A351CB20303193514B51CB303EA
:1000C8000319B514351DB403031935150130F206AB
:1000D800080003138312061CA70A06302702031D13
:1000E80077280230A700861CA60A153026020319B5
:1000F8008528061DA60309302602031989280B1036
:1001080008000A30A6000B1008001430A6000B10D7
:020118000800DD
:100200008A010A148207FC346034DA34F23466342A
:10021000B634BE34E034FE34F634EE343E349C342E
:100220007A349E348E3403178316880189010313B0
:1002300083168501870188018901860186140615C8
:1002400006148113951415151514031383160F172F
:100250008F160F120F1449226822562260220313B0
:10026000831285018701880189018601A901AC01FA
:10027000A301A401A501AD010930A000A100A200C5
:100280002008B2002108B3002208B4000130A70002
:100290000A30A600FE30B500FF30AE003208B100D3
:1002A00023222D223308B100232234223408B10046
:1002B00023223B222D1C6D210230270203198021AD
:1002C0000330270203198A210430270203199421DD
:1002D0000530270203199E214E292C1CAB212E1C10
:1002E000FF21AC18B6212C19C721AE1C0B22AC196A
:1002F000D2212C1AE3212E1D1722AC1AEE21080060
:100300008615061286122608A3002308B1002322B0
:10031000422208008611061686122608A400240828
:10032000B1002322422208008611061286162608F2
:10033000A5002508B1002322422208002D148615AD
:10034000061686163630880006308900861C7B2209
:10035000061D9222080021308800043089000630F2
:100360003202031D08002E102C14080022308800D1
:1003700004308900033029020319BF210800AC10A2
:100380002C152108B300FD30B500A90108000C3080
:1003900088000430890006303302031D0800AE10C7
:1003A0002C11080014308800043089000330290221
:1003B0000319DB210800AC112C162208B400FB3015
:1003C000B500A901080024308800013089000630FA
:1003D0003402031D08002E112C120800243088005E
:1003E00002308900033029020319F7210800AC12FA
:1003F0002C102008B200FE30B500A9010800721CC4
:1004000008107218081403303202031D08002E145D
:10041000AC14A9010800721C8811721888150330E9
:100420003302031D0800AE14AC15A9010800721CAC
:1004300009107218091403303402031D08002E1528
:10044000AC16A9010800AF010A30B1020318AF0AC7
:100450000318242A0A30B10708002F080021B80029
:1004600031080021B70008002F080021BA00310828
:100470000021B90008002F080021BC00310800212C
:10048000BB0008002F080021BD0031080021BE007C
:1004900008000313831681128111011581140110C4
:1004A00003138312E63081000B1108000313831637
:1004B0009614161516140313831206080B10080061
:1004C0008B178B160B110C140C108B150B100800CE
:1004D000031383160C140313831290109016101636
:1004E00090111011101403138312DC308E000B30A6
:1004F0008F000C100800A6032308A000B2002408F7
:10050000A100B3002508A200B4000130A7002D10FF
:10051000861106128612BE01BD010630B500AC017F
:10052000A90108000130A700A60A2008B20021088E
:10053000B3002208B4002D10861106128612BE01E7
:0C054000BD010630B500AC01A9010800A7
:04400E00D430FF3F6C
:00000001FF
