:020000040000FA
:060000000A128A11122809
:10000800FE00030EF1000408F2000A08F300831250
:1000180003137F08F4000A128A110D290A128A11A3
:100028001528F90183010A128A111A288316031761
:10003800880189018316031385010330860087012F
:1000480088010F178F160F160F14811281110115D1
:100058008110011464308312031381008B178B16EF
:100068000B118501860187018801F801F701B301A9
:100078000330AF002F08F5000508AF002F08F60081
:100088006430A6000030A7007608AF00B0012F0842
:10009800A8003008A9000A128A11A4200A128A119D
:1000A800831203132608B1003108F8000A30A600AD
:1000B8000030A7007808AF00B0012F08A000300872
:1000C800A1009C30A200FF30A3000A128A115E2111
:1000D8000A128A117608831203132007A800210840
:1000E8000318210AA9000A128A11A4200A128A11E7
:1000F800831203132608B1003108F7009C30AF00C3
:100108002F08A00078080A128A1185210A128A117C
:1001180083120313B000F630B1003108A00077084D
:100128000A128A1185210A128A11831203133007D1
:100138007607B2003208B30040280A128A11122842
:1001480083120313AC01A71FAA28AB28B228A6095B
:10015800A709A60A0319A70AAC01AC0AA91FB52862
:10016800B628BF28A809A909A80A0319A90A0130AD
:10017800AA002A08AC06AD01AE0126082704031917
:10018800C628C728FE28AB01AB0AD52801300310C2
:10019800A60DA70DFF3E031DCB280130AA002A0893
:1001A800AB07A71FD828D928CA2801300310AD0DDE
:1001B800AE0DFF3E031DDA2827082902031DE62895
:1001C80026082802031CE928EA28F1282608A8029C
:1001D8002708031CA903A9022D1401300310A70C3A
:1001E800A60CFF3E031DF2280130AB02031DFD28BB
:1001F800FE28D9282C080319022903290829AD0942
:10020800AE09AD0A0319AE0A2E08A7002D08A600EC
:1002180008000B1D102911295329081088100811EE
:1002280003307506031D19291A2925297808013E66
:1002380084000A128A119C210A128A118700081464
:10024800452902307506031D2A292B2936297708E6
:10025800013E84000A128A119C210A128A11870021
:10026800881445297503031D3A293B294529330874
:10027800013E84000A128A119C210A128A11870001
:1002880008150130F5027508031D4B294C29502922
:100298000330F0007008F5000B1164308100740819
:1002A800FF0073088A0072088400710E8300FE0E36
:1002B8007E0E090083120313A401A501201C6529E1
:1002C80066296C292208A4070318A50A2308A5078C
:1002D80001300310A20DA30DFF3E031D6D2901304F
:1002E8000310A10CA00CFF3E031D74292008210453
:1002F800031D7F29802962292508A1002408A00060
:10030800080083120313A300A201231C8C298D2942
:1003180091292008A1002108A2070310A00D0310AD
:10032800A30C2308031D99299A2989292208080062
:1003380001308A000408840A82070034FC346034DF
:10034800DA34F2346634B634BE34E034FE34F6348B
:04400E00D430FF3F6C
:00000001FF
